{"abi":[{"type":"constructor","inputs":[{"name":"initialOwner","type":"address","internalType":"address"}],"stateMutability":"nonpayable"},{"type":"function","name":"approve","inputs":[{"name":"to","type":"address","internalType":"address"},{"name":"tokenId","type":"uint256","internalType":"uint256"}],"outputs":[],"stateMutability":"nonpayable"},{"type":"function","name":"balanceOf","inputs":[{"name":"owner","type":"address","internalType":"address"}],"outputs":[{"name":"","type":"uint256","internalType":"uint256"}],"stateMutability":"view"},{"type":"function","name":"consume","inputs":[{"name":"tokenId","type":"uint256","internalType":"uint256"}],"outputs":[],"stateMutability":"nonpayable"},{"type":"function","name":"getApproved","inputs":[{"name":"tokenId","type":"uint256","internalType":"uint256"}],"outputs":[{"name":"","type":"address","internalType":"address"}],"stateMutability":"view"},{"type":"function","name":"getEventTypeString","inputs":[{"name":"eventType","type":"uint8","internalType":"enum BaseNFT.EventType"}],"outputs":[{"name":"","type":"string","internalType":"string"}],"stateMutability":"pure"},{"type":"function","name":"getNFTData","inputs":[{"name":"tokenId","type":"uint256","internalType":"uint256"}],"outputs":[{"name":"picture","type":"string","internalType":"string"},{"name":"location","type":"string","internalType":"string"},{"name":"datetime","type":"uint256","internalType":"uint256"},{"name":"consumed","type":"bool","internalType":"bool"},{"name":"originalOwner","type":"address","internalType":"address"},{"name":"currentOwner","type":"address","internalType":"address"},{"name":"eventType","type":"uint8","internalType":"enum BaseNFT.EventType"}],"stateMutability":"view"},{"type":"function","name":"isApprovedForAll","inputs":[{"name":"owner","type":"address","internalType":"address"},{"name":"operator","type":"address","internalType":"address"}],"outputs":[{"name":"","type":"bool","internalType":"bool"}],"stateMutability":"view"},{"type":"function","name":"isConsumed","inputs":[{"name":"tokenId","type":"uint256","internalType":"uint256"}],"outputs":[{"name":"","type":"bool","internalType":"bool"}],"stateMutability":"view"},{"type":"function","name":"mint","inputs":[{"name":"picture","type":"string","internalType":"string"},{"name":"location","type":"string","internalType":"string"},{"name":"datetime","type":"uint256","internalType":"uint256"},{"name":"eventType","type":"uint8","internalType":"enum BaseNFT.EventType"}],"outputs":[{"name":"","type":"uint256","internalType":"uint256"}],"stateMutability":"nonpayable"},{"type":"function","name":"name","inputs":[],"outputs":[{"name":"","type":"string","internalType":"string"}],"stateMutability":"view"},{"type":"function","name":"nftData","inputs":[{"name":"","type":"uint256","internalType":"uint256"}],"outputs":[{"name":"picture","type":"string","internalType":"string"},{"name":"location","type":"string","internalType":"string"},{"name":"datetime","type":"uint256","internalType":"uint256"},{"name":"consumed","type":"bool","internalType":"bool"},{"name":"originalOwner","type":"address","internalType":"address"},{"name":"eventType","type":"uint8","internalType":"enum BaseNFT.EventType"}],"stateMutability":"view"},{"type":"function","name":"owner","inputs":[],"outputs":[{"name":"","type":"address","internalType":"address"}],"stateMutability":"view"},{"type":"function","name":"ownerOf","inputs":[{"name":"tokenId","type":"uint256","internalType":"uint256"}],"outputs":[{"name":"","type":"address","internalType":"address"}],"stateMutability":"view"},{"type":"function","name":"renounceOwnership","inputs":[],"outputs":[],"stateMutability":"nonpayable"},{"type":"function","name":"safeTransferFrom","inputs":[{"name":"from","type":"address","internalType":"address"},{"name":"to","type":"address","internalType":"address"},{"name":"tokenId","type":"uint256","internalType":"uint256"}],"outputs":[],"stateMutability":"nonpayable"},{"type":"function","name":"safeTransferFrom","inputs":[{"name":"from","type":"address","internalType":"address"},{"name":"to","type":"address","internalType":"address"},{"name":"tokenId","type":"uint256","internalType":"uint256"},{"name":"data","type":"bytes","internalType":"bytes"}],"outputs":[],"stateMutability":"nonpayable"},{"type":"function","name":"setApprovalForAll","inputs":[{"name":"operator","type":"address","internalType":"address"},{"name":"approved","type":"bool","internalType":"bool"}],"outputs":[],"stateMutability":"nonpayable"},{"type":"function","name":"supportsInterface","inputs":[{"name":"interfaceId","type":"bytes4","internalType":"bytes4"}],"outputs":[{"name":"","type":"bool","internalType":"bool"}],"stateMutability":"view"},{"type":"function","name":"symbol","inputs":[],"outputs":[{"name":"","type":"string","internalType":"string"}],"stateMutability":"view"},{"type":"function","name":"tokenURI","inputs":[{"name":"tokenId","type":"uint256","internalType":"uint256"}],"outputs":[{"name":"","type":"string","internalType":"string"}],"stateMutability":"view"},{"type":"function","name":"totalSupply","inputs":[],"outputs":[{"name":"","type":"uint256","internalType":"uint256"}],"stateMutability":"view"},{"type":"function","name":"transferFrom","inputs":[{"name":"from","type":"address","internalType":"address"},{"name":"to","type":"address","internalType":"address"},{"name":"tokenId","type":"uint256","internalType":"uint256"}],"outputs":[],"stateMutability":"nonpayable"},{"type":"function","name":"transferOwnership","inputs":[{"name":"newOwner","type":"address","internalType":"address"}],"outputs":[],"stateMutability":"nonpayable"},{"type":"event","name":"Approval","inputs":[{"name":"owner","type":"address","indexed":true,"internalType":"address"},{"name":"approved","type":"address","indexed":true,"internalType":"address"},{"name":"tokenId","type":"uint256","indexed":true,"internalType":"uint256"}],"anonymous":false},{"type":"event","name":"ApprovalForAll","inputs":[{"name":"owner","type":"address","indexed":true,"internalType":"address"},{"name":"operator","type":"address","indexed":true,"internalType":"address"},{"name":"approved","type":"bool","indexed":false,"internalType":"bool"}],"anonymous":false},{"type":"event","name":"NFTConsumed","inputs":[{"name":"tokenId","type":"uint256","indexed":true,"internalType":"uint256"},{"name":"consumer","type":"address","indexed":true,"internalType":"address"}],"anonymous":false},{"type":"event","name":"NFTMinted","inputs":[{"name":"tokenId","type":"uint256","indexed":true,"internalType":"uint256"},{"name":"owner","type":"address","indexed":true,"internalType":"address"},{"name":"picture","type":"string","indexed":false,"internalType":"string"},{"name":"location","type":"string","indexed":false,"internalType":"string"},{"name":"datetime","type":"uint256","indexed":false,"internalType":"uint256"},{"name":"eventType","type":"uint8","indexed":false,"internalType":"enum BaseNFT.EventType"}],"anonymous":false},{"type":"event","name":"OwnershipTransferred","inputs":[{"name":"previousOwner","type":"address","indexed":true,"internalType":"address"},{"name":"newOwner","type":"address","indexed":true,"internalType":"address"}],"anonymous":false},{"type":"event","name":"Transfer","inputs":[{"name":"from","type":"address","indexed":true,"internalType":"address"},{"name":"to","type":"address","indexed":true,"internalType":"address"},{"name":"tokenId","type":"uint256","indexed":true,"internalType":"uint256"}],"anonymous":false},{"type":"error","name":"ERC721IncorrectOwner","inputs":[{"name":"sender","type":"address","internalType":"address"},{"name":"tokenId","type":"uint256","internalType":"uint256"},{"name":"owner","type":"address","internalType":"address"}]},{"type":"error","name":"ERC721InsufficientApproval","inputs":[{"name":"operator","type":"address","internalType":"address"},{"name":"tokenId","type":"uint256","internalType":"uint256"}]},{"type":"error","name":"ERC721InvalidApprover","inputs":[{"name":"approver","type":"address","internalType":"address"}]},{"type":"error","name":"ERC721InvalidOperator","inputs":[{"name":"operator","type":"address","internalType":"address"}]},{"type":"error","name":"ERC721InvalidOwner","inputs":[{"name":"owner","type":"address","internalType":"address"}]},{"type":"error","name":"ERC721InvalidReceiver","inputs":[{"name":"receiver","type":"address","internalType":"address"}]},{"type":"error","name":"ERC721InvalidSender","inputs":[{"name":"sender","type":"address","internalType":"address"}]},{"type":"error","name":"ERC721NonexistentToken","inputs":[{"name":"tokenId","type":"uint256","internalType":"uint256"}]},{"type":"error","name":"OwnableInvalidOwner","inputs":[{"name":"owner","type":"address","internalType":"address"}]},{"type":"error","name":"OwnableUnauthorizedAccount","inputs":[{"name":"account","type":"address","internalType":"address"}]},{"type":"error","name":"ReentrancyGuardReentrantCall","inputs":[]}],"bytecode":{"object":"0x608060405234801561000f575f5ffd5b50604051613aef380380613aef83398181016040528101906100319190610276565b806040518060400160405280601081526020017f4865726d6573204576656e74204e4654000000000000000000000000000000008152506040518060400160405280600581526020017f48454e4654000000000000000000000000000000000000000000000000000000815250815f90816100ac91906104de565b5080600190816100bc91906104de565b5050505f73ffffffffffffffffffffffffffffffffffffffff168173ffffffffffffffffffffffffffffffffffffffff160361012f575f6040517f1e4fbdf700000000000000000000000000000000000000000000000000000000815260040161012691906105bc565b60405180910390fd5b61013e8161015560201b60201c565b5060016007819055506001600881905550506105d5565b5f60065f9054906101000a900473ffffffffffffffffffffffffffffffffffffffff1690508160065f6101000a81548173ffffffffffffffffffffffffffffffffffffffff021916908373ffffffffffffffffffffffffffffffffffffffff1602179055508173ffffffffffffffffffffffffffffffffffffffff168173ffffffffffffffffffffffffffffffffffffffff167f8be0079c531659141344cd1fd0a4f28419497f9722a3daafe3b4186f6b6457e060405160405180910390a35050565b5f5ffd5b5f73ffffffffffffffffffffffffffffffffffffffff82169050919050565b5f6102458261021c565b9050919050565b6102558161023b565b811461025f575f5ffd5b50565b5f815190506102708161024c565b92915050565b5f6020828403121561028b5761028a610218565b5b5f61029884828501610262565b91505092915050565b5f81519050919050565b7f4e487b71000000000000000000000000000000000000000000000000000000005f52604160045260245ffd5b7f4e487b71000000000000000000000000000000000000000000000000000000005f52602260045260245ffd5b5f600282049050600182168061031c57607f821691505b60208210810361032f5761032e6102d8565b5b50919050565b5f819050815f5260205f209050919050565b5f6020601f8301049050919050565b5f82821b905092915050565b5f600883026103917fffffffffffffffffffffffffffffffffffffffffffffffffffffffffffffffff82610356565b61039b8683610356565b95508019841693508086168417925050509392505050565b5f819050919050565b5f819050919050565b5f6103df6103da6103d5846103b3565b6103bc565b6103b3565b9050919050565b5f819050919050565b6103f8836103c5565b61040c610404826103e6565b848454610362565b825550505050565b5f5f905090565b610423610414565b61042e8184846103ef565b505050565b5b81811015610451576104465f8261041b565b600181019050610434565b5050565b601f8211156104965761046781610335565b61047084610347565b8101602085101561047f578190505b61049361048b85610347565b830182610433565b50505b505050565b5f82821c905092915050565b5f6104b65f198460080261049b565b1980831691505092915050565b5f6104ce83836104a7565b9150826002028217905092915050565b6104e7826102a1565b67ffffffffffffffff811115610500576104ff6102ab565b5b61050a8254610305565b610515828285610455565b5f60209050601f831160018114610546575f8415610534578287015190505b61053e85826104c3565b8655506105a5565b601f19841661055486610335565b5f5b8281101561057b57848901518255600182019150602085019450602081019050610556565b868310156105985784890151610594601f8916826104a7565b8355505b6001600288020188555050505b505050505050565b6105b68161023b565b82525050565b5f6020820190506105cf5f8301846105ad565b92915050565b61350d806105e25f395ff3fe608060405234801561000f575f5ffd5b506004361061014b575f3560e01c806370a08231116100c1578063a22cb4651161007a578063a22cb465146103cc578063b88d4fde146103e8578063c87b56dd14610404578063d7450a8d14610434578063e985e9c514610464578063f2fde38b146104945761014b565b806370a08231146102f1578063715018a614610321578063751031bc1461032b5780638c2109751461035b5780638da5cb5b1461039057806395d89b41146103ae5761014b565b806318160ddd1161011357806318160ddd1461021f57806323b872dd1461023d57806342842e0e14610259578063483f31ab14610275578063526e288f146102915780636352211e146102c15761014b565b806301ffc9a71461014f57806306fdde031461017f578063081812fc1461019d578063095ea7b3146101cd5780630ad4c4f4146101e9575b5f5ffd5b610169600480360381019061016491906124d8565b6104b0565b604051610176919061251d565b60405180910390f35b610187610591565b60405161019491906125a6565b60405180910390f35b6101b760048036038101906101b291906125f9565b610620565b6040516101c49190612663565b60405180910390f35b6101e760048036038101906101e291906126a6565b61063b565b005b61020360048036038101906101fe91906125f9565b610651565b6040516102169796959493929190612766565b60405180910390f35b6102276108d4565b60405161023491906127e1565b60405180910390f35b610257600480360381019061025291906127fa565b6108e9565b005b610273600480360381019061026e91906127fa565b6109e8565b005b61028f600480360381019061028a91906125f9565b610a07565b005b6102ab60048036038101906102a69190612999565b610bd5565b6040516102b891906127e1565b60405180910390f35b6102db60048036038101906102d691906125f9565b610e6b565b6040516102e89190612663565b60405180910390f35b61030b60048036038101906103069190612a35565b610e7c565b60405161031891906127e1565b60405180910390f35b610329610f32565b005b61034560048036038101906103409190612a60565b610f45565b60405161035291906125a6565b60405180910390f35b610375600480360381019061037091906125f9565b611127565b60405161038796959493929190612a8b565b60405180910390f35b6103986112a4565b6040516103a59190612663565b60405180910390f35b6103b66112cc565b6040516103c391906125a6565b60405180910390f35b6103e660048036038101906103e19190612b22565b61135c565b005b61040260048036038101906103fd9190612bfe565b611372565b005b61041e600480360381019061041991906125f9565b611397565b60405161042b91906125a6565b60405180910390f35b61044e600480360381019061044991906125f9565b6113fd565b60405161045b919061251d565b60405180910390f35b61047e60048036038101906104799190612c7e565b61146e565b60405161048b919061251d565b60405180910390f35b6104ae60048036038101906104a99190612a35565b6114fc565b005b5f7f80ac58cd000000000000000000000000000000000000000000000000000000007bffffffffffffffffffffffffffffffffffffffffffffffffffffffff1916827bffffffffffffffffffffffffffffffffffffffffffffffffffffffff1916148061057a57507f5b5e139f000000000000000000000000000000000000000000000000000000007bffffffffffffffffffffffffffffffffffffffffffffffffffffffff1916827bffffffffffffffffffffffffffffffffffffffffffffffffffffffff1916145b8061058a575061058982611580565b5b9050919050565b60605f805461059f90612ce9565b80601f01602080910402602001604051908101604052809291908181526020018280546105cb90612ce9565b80156106165780601f106105ed57610100808354040283529160200191610616565b820191905f5260205f20905b8154815290600101906020018083116105f957829003601f168201915b5050505050905090565b5f61062a826115e9565b506106348261166f565b9050919050565b61064d82826106486116a8565b6116af565b5050565b6060805f5f5f5f5f610662886116c1565b6106a1576040517f08c379a000000000000000000000000000000000000000000000000000000000815260040161069890612d63565b60405180910390fd5b5f60095f8a81526020019081526020015f206040518060c00160405290815f820180546106cd90612ce9565b80601f01602080910402602001604051908101604052809291908181526020018280546106f990612ce9565b80156107445780601f1061071b57610100808354040283529160200191610744565b820191905f5260205f20905b81548152906001019060200180831161072757829003601f168201915b5050505050815260200160018201805461075d90612ce9565b80601f016020809104026020016040519081016040528092919081815260200182805461078990612ce9565b80156107d45780601f106107ab576101008083540402835291602001916107d4565b820191905f5260205f20905b8154815290600101906020018083116107b757829003601f168201915b5050505050815260200160028201548152602001600382015f9054906101000a900460ff161515151581526020016003820160019054906101000a900473ffffffffffffffffffffffffffffffffffffffff1673ffffffffffffffffffffffffffffffffffffffff1673ffffffffffffffffffffffffffffffffffffffff1681526020016003820160159054906101000a900460ff16600381111561087c5761087b6126f3565b5b600381111561088e5761088d6126f3565b5b815250509050805f015181602001518260400151836060015184608001516108b58e610e6b565b8660a00151975097509750975097509750975050919395979092949650565b5f60016008546108e49190612dae565b905090565b5f73ffffffffffffffffffffffffffffffffffffffff168273ffffffffffffffffffffffffffffffffffffffff1603610959575f6040517f64a0ae920000000000000000000000000000000000000000000000000000000081526004016109509190612663565b60405180910390fd5b5f61096c83836109676116a8565b6116d9565b90508373ffffffffffffffffffffffffffffffffffffffff168173ffffffffffffffffffffffffffffffffffffffff16146109e2578382826040517f64283d7b0000000000000000000000000000000000000000000000000000000081526004016109d993929190612de1565b60405180910390fd5b50505050565b610a0283838360405180602001604052805f815250611372565b505050565b610a0f6118e4565b610a18816116c1565b610a57576040517f08c379a0000000000000000000000000000000000000000000000000000000008152600401610a4e90612d63565b60405180910390fd5b60095f8281526020019081526020015f206003015f9054906101000a900460ff1615610ab8576040517f08c379a0000000000000000000000000000000000000000000000000000000008152600401610aaf90612e60565b60405180910390fd5b60095f8281526020019081526020015f2060030160019054906101000a900473ffffffffffffffffffffffffffffffffffffffff1673ffffffffffffffffffffffffffffffffffffffff163373ffffffffffffffffffffffffffffffffffffffff1614610b5a576040517f08c379a0000000000000000000000000000000000000000000000000000000008152600401610b5190612eee565b60405180910390fd5b600160095f8381526020019081526020015f206003015f6101000a81548160ff0219169083151502179055503373ffffffffffffffffffffffffffffffffffffffff16817f9511bb4e559bae0e83e75fe34e8c344f5284298878acbcf6350066fb4911d7ab60405160405180910390a3610bd261192a565b50565b5f610bde6118e4565b5f855111610c21576040517f08c379a0000000000000000000000000000000000000000000000000000000008152600401610c1890612f56565b60405180910390fd5b5f845111610c64576040517f08c379a0000000000000000000000000000000000000000000000000000000008152600401610c5b90612fbe565b60405180910390fd5b5f8311610ca6576040517f08c379a0000000000000000000000000000000000000000000000000000000008152600401610c9d90613026565b60405180910390fd5b5f600854905060085f815480929190610cbe90613044565b9190505550610ccd3382611934565b6040518060c001604052808781526020018681526020018581526020015f151581526020013373ffffffffffffffffffffffffffffffffffffffff168152602001846003811115610d2157610d206126f3565b5b81525060095f8381526020019081526020015f205f820151815f019081610d48919061322b565b506020820151816001019081610d5e919061322b565b50604082015181600201556060820151816003015f6101000a81548160ff02191690831515021790555060808201518160030160016101000a81548173ffffffffffffffffffffffffffffffffffffffff021916908373ffffffffffffffffffffffffffffffffffffffff16021790555060a08201518160030160156101000a81548160ff02191690836003811115610dfa57610df96126f3565b5b02179055509050503373ffffffffffffffffffffffffffffffffffffffff16817fbc7966ada33ccf427d4f44a723ac9727b50f2a4c21a8463ba17aa19a2b51cb6488888888604051610e4f94939291906132fa565b60405180910390a380915050610e6361192a565b949350505050565b5f610e75826115e9565b9050919050565b5f5f73ffffffffffffffffffffffffffffffffffffffff168273ffffffffffffffffffffffffffffffffffffffff1603610eed575f6040517f89c62b64000000000000000000000000000000000000000000000000000000008152600401610ee49190612663565b60405180910390fd5b60035f8373ffffffffffffffffffffffffffffffffffffffff1673ffffffffffffffffffffffffffffffffffffffff1681526020019081526020015f20549050919050565b610f3a611951565b610f435f6119d8565b565b60605f6003811115610f5a57610f596126f3565b5b826003811115610f6d57610f6c6126f3565b5b03610faf576040518060400160405280600481526020017f666f6f64000000000000000000000000000000000000000000000000000000008152509050611122565b60016003811115610fc357610fc26126f3565b5b826003811115610fd657610fd56126f3565b5b03611018576040518060400160405280600681526020017f73706f72747300000000000000000000000000000000000000000000000000008152509050611122565b6002600381111561102c5761102b6126f3565b5b82600381111561103f5761103e6126f3565b5b03611081576040518060400160405280600681526020017f6576656e747300000000000000000000000000000000000000000000000000008152509050611122565b600380811115611094576110936126f3565b5b8260038111156110a7576110a66126f3565b5b036110e9576040518060400160405280600581526020017f6f746865720000000000000000000000000000000000000000000000000000008152509050611122565b6040518060400160405280600581526020017f6f7468657200000000000000000000000000000000000000000000000000000081525090505b919050565b6009602052805f5260405f205f91509050805f01805461114690612ce9565b80601f016020809104026020016040519081016040528092919081815260200182805461117290612ce9565b80156111bd5780601f10611194576101008083540402835291602001916111bd565b820191905f5260205f20905b8154815290600101906020018083116111a057829003601f168201915b5050505050908060010180546111d290612ce9565b80601f01602080910402602001604051908101604052809291908181526020018280546111fe90612ce9565b80156112495780601f1061122057610100808354040283529160200191611249565b820191905f5260205f20905b81548152906001019060200180831161122c57829003601f168201915b505050505090806002015490806003015f9054906101000a900460ff16908060030160019054906101000a900473ffffffffffffffffffffffffffffffffffffffff16908060030160159054906101000a900460ff16905086565b5f60065f9054906101000a900473ffffffffffffffffffffffffffffffffffffffff16905090565b6060600180546112db90612ce9565b80601f016020809104026020016040519081016040528092919081815260200182805461130790612ce9565b80156113525780601f1061132957610100808354040283529160200191611352565b820191905f5260205f20905b81548152906001019060200180831161133557829003601f168201915b5050505050905090565b61136e6113676116a8565b8383611a9b565b5050565b61137d8484846108e9565b6113916113886116a8565b85858585611c04565b50505050565b60606113a2826115e9565b505f6113ac611db0565b90505f8151116113ca5760405180602001604052805f8152506113f5565b806113d484611dc6565b6040516020016113e5929190613385565b6040516020818303038152906040525b915050919050565b5f611407826116c1565b611446576040517f08c379a000000000000000000000000000000000000000000000000000000000815260040161143d90612d63565b60405180910390fd5b60095f8381526020019081526020015f206003015f9054906101000a900460ff169050919050565b5f60055f8473ffffffffffffffffffffffffffffffffffffffff1673ffffffffffffffffffffffffffffffffffffffff1681526020019081526020015f205f8373ffffffffffffffffffffffffffffffffffffffff1673ffffffffffffffffffffffffffffffffffffffff1681526020019081526020015f205f9054906101000a900460ff16905092915050565b611504611951565b5f73ffffffffffffffffffffffffffffffffffffffff168173ffffffffffffffffffffffffffffffffffffffff1603611574575f6040517f1e4fbdf700000000000000000000000000000000000000000000000000000000815260040161156b9190612663565b60405180910390fd5b61157d816119d8565b50565b5f7f01ffc9a7000000000000000000000000000000000000000000000000000000007bffffffffffffffffffffffffffffffffffffffffffffffffffffffff1916827bffffffffffffffffffffffffffffffffffffffffffffffffffffffff1916149050919050565b5f5f6115f483611e90565b90505f73ffffffffffffffffffffffffffffffffffffffff168173ffffffffffffffffffffffffffffffffffffffff160361166657826040517f7e27328900000000000000000000000000000000000000000000000000000000815260040161165d91906127e1565b60405180910390fd5b80915050919050565b5f60045f8381526020019081526020015f205f9054906101000a900473ffffffffffffffffffffffffffffffffffffffff169050919050565b5f33905090565b6116bc8383836001611ec9565b505050565b5f5f821180156116d2575060085482105b9050919050565b5f5f6116e484611e90565b90505f73ffffffffffffffffffffffffffffffffffffffff168373ffffffffffffffffffffffffffffffffffffffff161461172557611724818486612088565b5b5f73ffffffffffffffffffffffffffffffffffffffff168173ffffffffffffffffffffffffffffffffffffffff16146117b0576117645f855f5f611ec9565b600160035f8373ffffffffffffffffffffffffffffffffffffffff1673ffffffffffffffffffffffffffffffffffffffff1681526020019081526020015f205f82825403925050819055505b5f73ffffffffffffffffffffffffffffffffffffffff168573ffffffffffffffffffffffffffffffffffffffff161461182f57600160035f8773ffffffffffffffffffffffffffffffffffffffff1673ffffffffffffffffffffffffffffffffffffffff1681526020019081526020015f205f82825401925050819055505b8460025f8681526020019081526020015f205f6101000a81548173ffffffffffffffffffffffffffffffffffffffff021916908373ffffffffffffffffffffffffffffffffffffffff160217905550838573ffffffffffffffffffffffffffffffffffffffff168273ffffffffffffffffffffffffffffffffffffffff167fddf252ad1be2c89b69c2b068fc378daa952ba7f163c4a11628f55a4df523b3ef60405160405180910390a4809150509392505050565b600260075403611920576040517f3ee5aeb500000000000000000000000000000000000000000000000000000000815260040160405180910390fd5b6002600781905550565b6001600781905550565b61194d828260405180602001604052805f81525061214b565b5050565b6119596116a8565b73ffffffffffffffffffffffffffffffffffffffff166119776112a4565b73ffffffffffffffffffffffffffffffffffffffff16146119d65761199a6116a8565b6040517f118cdaa70000000000000000000000000000000000000000000000000000000081526004016119cd9190612663565b60405180910390fd5b565b5f60065f9054906101000a900473ffffffffffffffffffffffffffffffffffffffff1690508160065f6101000a81548173ffffffffffffffffffffffffffffffffffffffff021916908373ffffffffffffffffffffffffffffffffffffffff1602179055508173ffffffffffffffffffffffffffffffffffffffff168173ffffffffffffffffffffffffffffffffffffffff167f8be0079c531659141344cd1fd0a4f28419497f9722a3daafe3b4186f6b6457e060405160405180910390a35050565b5f73ffffffffffffffffffffffffffffffffffffffff168273ffffffffffffffffffffffffffffffffffffffff1603611b0b57816040517f5b08ba18000000000000000000000000000000000000000000000000000000008152600401611b029190612663565b60405180910390fd5b8060055f8573ffffffffffffffffffffffffffffffffffffffff1673ffffffffffffffffffffffffffffffffffffffff1681526020019081526020015f205f8473ffffffffffffffffffffffffffffffffffffffff1673ffffffffffffffffffffffffffffffffffffffff1681526020019081526020015f205f6101000a81548160ff0219169083151502179055508173ffffffffffffffffffffffffffffffffffffffff168373ffffffffffffffffffffffffffffffffffffffff167f17307eab39ab6107e8899845ad3d59bd9653f200f220920489ca2b5937696c3183604051611bf7919061251d565b60405180910390a3505050565b5f8373ffffffffffffffffffffffffffffffffffffffff163b1115611da9578273ffffffffffffffffffffffffffffffffffffffff1663150b7a02868685856040518563ffffffff1660e01b8152600401611c6294939291906133fa565b6020604051808303815f875af1925050508015611c9d57506040513d601f19601f82011682018060405250810190611c9a9190613458565b60015b611d1e573d805f8114611ccb576040519150601f19603f3d011682016040523d82523d5f602084013e611cd0565b606091505b505f815103611d1657836040517f64a0ae92000000000000000000000000000000000000000000000000000000008152600401611d0d9190612663565b60405180910390fd5b805160208201fd5b63150b7a0260e01b7bffffffffffffffffffffffffffffffffffffffffffffffffffffffff1916817bffffffffffffffffffffffffffffffffffffffffffffffffffffffff191614611da757836040517f64a0ae92000000000000000000000000000000000000000000000000000000008152600401611d9e9190612663565b60405180910390fd5b505b5050505050565b606060405180602001604052805f815250905090565b60605f6001611dd48461216e565b0190505f8167ffffffffffffffff811115611df257611df1612852565b5b6040519080825280601f01601f191660200182016040528015611e245781602001600182028036833780820191505090505b5090505f82602083010190505b600115611e85578080600190039150507f3031323334353637383961626364656600000000000000000000000000000000600a86061a8153600a8581611e7a57611e79613483565b5b0494505f8503611e31575b819350505050919050565b5f60025f8381526020019081526020015f205f9054906101000a900473ffffffffffffffffffffffffffffffffffffffff169050919050565b8080611f0157505f73ffffffffffffffffffffffffffffffffffffffff168273ffffffffffffffffffffffffffffffffffffffff1614155b15612033575f611f10846115e9565b90505f73ffffffffffffffffffffffffffffffffffffffff168373ffffffffffffffffffffffffffffffffffffffff1614158015611f7a57508273ffffffffffffffffffffffffffffffffffffffff168173ffffffffffffffffffffffffffffffffffffffff1614155b8015611f8d5750611f8b818461146e565b155b15611fcf57826040517fa9fbf51f000000000000000000000000000000000000000000000000000000008152600401611fc69190612663565b60405180910390fd5b811561203157838573ffffffffffffffffffffffffffffffffffffffff168273ffffffffffffffffffffffffffffffffffffffff167f8c5be1e5ebec7d5bd14f71427d1e84f3dd0314c0f7b2291e5b200ac8c7c3b92560405160405180910390a45b505b8360045f8581526020019081526020015f205f6101000a81548173ffffffffffffffffffffffffffffffffffffffff021916908373ffffffffffffffffffffffffffffffffffffffff16021790555050505050565b6120938383836122bf565b612146575f73ffffffffffffffffffffffffffffffffffffffff168373ffffffffffffffffffffffffffffffffffffffff160361210757806040517f7e2732890000000000000000000000000000000000000000000000000000000081526004016120fe91906127e1565b60405180910390fd5b81816040517f177e802f00000000000000000000000000000000000000000000000000000000815260040161213d9291906134b0565b60405180910390fd5b505050565b612155838361237f565b6121696121606116a8565b5f858585611c04565b505050565b5f5f5f90507a184f03e93ff9f4daa797ed6e38ed64bf6a1f01000000000000000083106121ca577a184f03e93ff9f4daa797ed6e38ed64bf6a1f01000000000000000083816121c0576121bf613483565b5b0492506040810190505b6d04ee2d6d415b85acef81000000008310612207576d04ee2d6d415b85acef810000000083816121fd576121fc613483565b5b0492506020810190505b662386f26fc10000831061223657662386f26fc10000838161222c5761222b613483565b5b0492506010810190505b6305f5e100831061225f576305f5e100838161225557612254613483565b5b0492506008810190505b612710831061228457612710838161227a57612279613483565b5b0492506004810190505b606483106122a7576064838161229d5761229c613483565b5b0492506002810190505b600a83106122b6576001810190505b80915050919050565b5f5f73ffffffffffffffffffffffffffffffffffffffff168373ffffffffffffffffffffffffffffffffffffffff161415801561237657508273ffffffffffffffffffffffffffffffffffffffff168473ffffffffffffffffffffffffffffffffffffffff1614806123375750612336848461146e565b5b8061237557508273ffffffffffffffffffffffffffffffffffffffff1661235d8361166f565b73ffffffffffffffffffffffffffffffffffffffff16145b5b90509392505050565b5f73ffffffffffffffffffffffffffffffffffffffff168273ffffffffffffffffffffffffffffffffffffffff16036123ef575f6040517f64a0ae920000000000000000000000000000000000000000000000000000000081526004016123e69190612663565b60405180910390fd5b5f6123fb83835f6116d9565b90505f73ffffffffffffffffffffffffffffffffffffffff168173ffffffffffffffffffffffffffffffffffffffff161461246d575f6040517f73c6ac6e0000000000000000000000000000000000000000000000000000000081526004016124649190612663565b60405180910390fd5b505050565b5f604051905090565b5f5ffd5b5f5ffd5b5f7fffffffff0000000000000000000000000000000000000000000000000000000082169050919050565b6124b781612483565b81146124c1575f5ffd5b50565b5f813590506124d2816124ae565b92915050565b5f602082840312156124ed576124ec61247b565b5b5f6124fa848285016124c4565b91505092915050565b5f8115159050919050565b61251781612503565b82525050565b5f6020820190506125305f83018461250e565b92915050565b5f81519050919050565b5f82825260208201905092915050565b8281835e5f83830152505050565b5f601f19601f8301169050919050565b5f61257882612536565b6125828185612540565b9350612592818560208601612550565b61259b8161255e565b840191505092915050565b5f6020820190508181035f8301526125be818461256e565b905092915050565b5f819050919050565b6125d8816125c6565b81146125e2575f5ffd5b50565b5f813590506125f3816125cf565b92915050565b5f6020828403121561260e5761260d61247b565b5b5f61261b848285016125e5565b91505092915050565b5f73ffffffffffffffffffffffffffffffffffffffff82169050919050565b5f61264d82612624565b9050919050565b61265d81612643565b82525050565b5f6020820190506126765f830184612654565b92915050565b61268581612643565b811461268f575f5ffd5b50565b5f813590506126a08161267c565b92915050565b5f5f604083850312156126bc576126bb61247b565b5b5f6126c985828601612692565b92505060206126da858286016125e5565b9150509250929050565b6126ed816125c6565b82525050565b7f4e487b71000000000000000000000000000000000000000000000000000000005f52602160045260245ffd5b60048110612731576127306126f3565b5b50565b5f81905061274182612720565b919050565b5f61275082612734565b9050919050565b61276081612746565b82525050565b5f60e0820190508181035f83015261277e818a61256e565b90508181036020830152612792818961256e565b90506127a160408301886126e4565b6127ae606083018761250e565b6127bb6080830186612654565b6127c860a0830185612654565b6127d560c0830184612757565b98975050505050505050565b5f6020820190506127f45f8301846126e4565b92915050565b5f5f5f606084860312156128115761281061247b565b5b5f61281e86828701612692565b935050602061282f86828701612692565b9250506040612840868287016125e5565b9150509250925092565b5f5ffd5b5f5ffd5b7f4e487b71000000000000000000000000000000000000000000000000000000005f52604160045260245ffd5b6128888261255e565b810181811067ffffffffffffffff821117156128a7576128a6612852565b5b80604052505050565b5f6128b9612472565b90506128c5828261287f565b919050565b5f67ffffffffffffffff8211156128e4576128e3612852565b5b6128ed8261255e565b9050602081019050919050565b828183375f83830152505050565b5f61291a612915846128ca565b6128b0565b9050828152602081018484840111156129365761293561284e565b5b6129418482856128fa565b509392505050565b5f82601f83011261295d5761295c61284a565b5b813561296d848260208601612908565b91505092915050565b60048110612982575f5ffd5b50565b5f8135905061299381612976565b92915050565b5f5f5f5f608085870312156129b1576129b061247b565b5b5f85013567ffffffffffffffff8111156129ce576129cd61247f565b5b6129da87828801612949565b945050602085013567ffffffffffffffff8111156129fb576129fa61247f565b5b612a0787828801612949565b9350506040612a18878288016125e5565b9250506060612a2987828801612985565b91505092959194509250565b5f60208284031215612a4a57612a4961247b565b5b5f612a5784828501612692565b91505092915050565b5f60208284031215612a7557612a7461247b565b5b5f612a8284828501612985565b91505092915050565b5f60c0820190508181035f830152612aa3818961256e565b90508181036020830152612ab7818861256e565b9050612ac660408301876126e4565b612ad3606083018661250e565b612ae06080830185612654565b612aed60a0830184612757565b979650505050505050565b612b0181612503565b8114612b0b575f5ffd5b50565b5f81359050612b1c81612af8565b92915050565b5f5f60408385031215612b3857612b3761247b565b5b5f612b4585828601612692565b9250506020612b5685828601612b0e565b9150509250929050565b5f67ffffffffffffffff821115612b7a57612b79612852565b5b612b838261255e565b9050602081019050919050565b5f612ba2612b9d84612b60565b6128b0565b905082815260208101848484011115612bbe57612bbd61284e565b5b612bc98482856128fa565b509392505050565b5f82601f830112612be557612be461284a565b5b8135612bf5848260208601612b90565b91505092915050565b5f5f5f5f60808587031215612c1657612c1561247b565b5b5f612c2387828801612692565b9450506020612c3487828801612692565b9350506040612c45878288016125e5565b925050606085013567ffffffffffffffff811115612c6657612c6561247f565b5b612c7287828801612bd1565b91505092959194509250565b5f5f60408385031215612c9457612c9361247b565b5b5f612ca185828601612692565b9250506020612cb285828601612692565b9150509250929050565b7f4e487b71000000000000000000000000000000000000000000000000000000005f52602260045260245ffd5b5f6002820490506001821680612d0057607f821691505b602082108103612d1357612d12612cbc565b5b50919050565b7f546f6b656e20646f6573206e6f742065786973740000000000000000000000005f82015250565b5f612d4d601483612540565b9150612d5882612d19565b602082019050919050565b5f6020820190508181035f830152612d7a81612d41565b9050919050565b7f4e487b71000000000000000000000000000000000000000000000000000000005f52601160045260245ffd5b5f612db8826125c6565b9150612dc3836125c6565b9250828203905081811115612ddb57612dda612d81565b5b92915050565b5f606082019050612df45f830186612654565b612e0160208301856126e4565b612e0e6040830184612654565b949350505050565b7f546f6b656e20616c726561647920636f6e73756d6564000000000000000000005f82015250565b5f612e4a601683612540565b9150612e5582612e16565b602082019050919050565b5f6020820190508181035f830152612e7781612e3e565b9050919050565b7f4f6e6c79206f726967696e616c2063726561746f722063616e20636f6e73756d5f8201527f652074686973204e465400000000000000000000000000000000000000000000602082015250565b5f612ed8602a83612540565b9150612ee382612e7e565b604082019050919050565b5f6020820190508181035f830152612f0581612ecc565b9050919050565b7f506963747572652055524c2063616e6e6f7420626520656d70747900000000005f82015250565b5f612f40601b83612540565b9150612f4b82612f0c565b602082019050919050565b5f6020820190508181035f830152612f6d81612f34565b9050919050565b7f4c6f636174696f6e2063616e6e6f7420626520656d70747900000000000000005f82015250565b5f612fa8601883612540565b9150612fb382612f74565b602082019050919050565b5f6020820190508181035f830152612fd581612f9c565b9050919050565b7f4461746574696d65206d757374206265207365740000000000000000000000005f82015250565b5f613010601483612540565b915061301b82612fdc565b602082019050919050565b5f6020820190508181035f83015261303d81613004565b9050919050565b5f61304e826125c6565b91507fffffffffffffffffffffffffffffffffffffffffffffffffffffffffffffffff82036130805761307f612d81565b5b600182019050919050565b5f819050815f5260205f209050919050565b5f6020601f8301049050919050565b5f82821b905092915050565b5f600883026130e77fffffffffffffffffffffffffffffffffffffffffffffffffffffffffffffffff826130ac565b6130f186836130ac565b95508019841693508086168417925050509392505050565b5f819050919050565b5f61312c613127613122846125c6565b613109565b6125c6565b9050919050565b5f819050919050565b61314583613112565b61315961315182613133565b8484546130b8565b825550505050565b5f5f905090565b613170613161565b61317b81848461313c565b505050565b5b8181101561319e576131935f82613168565b600181019050613181565b5050565b601f8211156131e3576131b48161308b565b6131bd8461309d565b810160208510156131cc578190505b6131e06131d88561309d565b830182613180565b50505b505050565b5f82821c905092915050565b5f6132035f19846008026131e8565b1980831691505092915050565b5f61321b83836131f4565b9150826002028217905092915050565b61323482612536565b67ffffffffffffffff81111561324d5761324c612852565b5b6132578254612ce9565b6132628282856131a2565b5f60209050601f831160018114613293575f8415613281578287015190505b61328b8582613210565b8655506132f2565b601f1984166132a18661308b565b5f5b828110156132c8578489015182556001820191506020850194506020810190506132a3565b868310156132e557848901516132e1601f8916826131f4565b8355505b6001600288020188555050505b505050505050565b5f6080820190508181035f830152613312818761256e565b90508181036020830152613326818661256e565b905061333560408301856126e4565b6133426060830184612757565b95945050505050565b5f81905092915050565b5f61335f82612536565b613369818561334b565b9350613379818560208601612550565b80840191505092915050565b5f6133908285613355565b915061339c8284613355565b91508190509392505050565b5f81519050919050565b5f82825260208201905092915050565b5f6133cc826133a8565b6133d681856133b2565b93506133e6818560208601612550565b6133ef8161255e565b840191505092915050565b5f60808201905061340d5f830187612654565b61341a6020830186612654565b61342760408301856126e4565b818103606083015261343981846133c2565b905095945050505050565b5f81519050613452816124ae565b92915050565b5f6020828403121561346d5761346c61247b565b5b5f61347a84828501613444565b91505092915050565b7f4e487b71000000000000000000000000000000000000000000000000000000005f52601260045260245ffd5b5f6040820190506134c35f830185612654565b6134d060208301846126e4565b939250505056fea264697066735822122057dc16a151c7eb493ea0a4670fc5312fe2c939909120518c52f9fbb43ca0b7f564736f6c634300081e0033","linkReferences":{}},"methodIdentifiers":{"approve(address,uint256)":"095ea7b3","balanceOf(address)":"70a08231","consume(uint256)":"483f31ab","getApproved(uint256)":"081812fc","getEventTypeString(uint8)":"751031bc","getNFTData(uint256)":"0ad4c4f4","isApprovedForAll(address,address)":"e985e9c5","isConsumed(uint256)":"d7450a8d","mint(string,string,uint256,uint8)":"526e288f","name()":"06fdde03","nftData(uint256)":"8c210975","owner()":"8da5cb5b","ownerOf(uint256)":"6352211e","renounceOwnership()":"715018a6","safeTransferFrom(address,address,uint256)":"42842e0e","safeTransferFrom(address,address,uint256,bytes)":"b88d4fde","setApprovalForAll(address,bool)":"a22cb465","supportsInterface(bytes4)":"01ffc9a7","symbol()":"95d89b41","tokenURI(uint256)":"c87b56dd","totalSupply()":"18160ddd","transferFrom(address,address,uint256)":"23b872dd","transferOwnership(address)":"f2fde38b"},"id":0}