{"abi":[{"type":"constructor","inputs":[{"name":"initialOwner","type":"address","internalType":"address"}],"stateMutability":"nonpayable"},{"type":"function","name":"approve","inputs":[{"name":"to","type":"address","internalType":"address"},{"name":"tokenId","type":"uint256","internalType":"uint256"}],"outputs":[],"stateMutability":"nonpayable"},{"type":"function","name":"balanceOf","inputs":[{"name":"owner","type":"address","internalType":"address"}],"outputs":[{"name":"","type":"uint256","internalType":"uint256"}],"stateMutability":"view"},{"type":"function","name":"consume","inputs":[{"name":"tokenId","type":"uint256","internalType":"uint256"}],"outputs":[],"stateMutability":"nonpayable"},{"type":"function","name":"getApproved","inputs":[{"name":"tokenId","type":"uint256","internalType":"uint256"}],"outputs":[{"name":"","type":"address","internalType":"address"}],"stateMutability":"view"},{"type":"function","name":"getNFTData","inputs":[{"name":"tokenId","type":"uint256","internalType":"uint256"}],"outputs":[{"name":"picture","type":"string","internalType":"string"},{"name":"location","type":"string","internalType":"string"},{"name":"datetime","type":"uint256","internalType":"uint256"},{"name":"consumed","type":"bool","internalType":"bool"},{"name":"originalOwner","type":"address","internalType":"address"},{"name":"currentOwner","type":"address","internalType":"address"},{"name":"eventType","type":"uint8","internalType":"enum BaseNFT.EventType"}],"stateMutability":"view"},{"type":"function","name":"isApprovedForAll","inputs":[{"name":"owner","type":"address","internalType":"address"},{"name":"operator","type":"address","internalType":"address"}],"outputs":[{"name":"","type":"bool","internalType":"bool"}],"stateMutability":"view"},{"type":"function","name":"isConsumed","inputs":[{"name":"tokenId","type":"uint256","internalType":"uint256"}],"outputs":[{"name":"","type":"bool","internalType":"bool"}],"stateMutability":"view"},{"type":"function","name":"mint","inputs":[{"name":"picture","type":"string","internalType":"string"},{"name":"location","type":"string","internalType":"string"},{"name":"datetime","type":"uint256","internalType":"uint256"},{"name":"eventType","type":"uint8","internalType":"enum BaseNFT.EventType"}],"outputs":[{"name":"","type":"uint256","internalType":"uint256"}],"stateMutability":"nonpayable"},{"type":"function","name":"name","inputs":[],"outputs":[{"name":"","type":"string","internalType":"string"}],"stateMutability":"view"},{"type":"function","name":"nftData","inputs":[{"name":"","type":"uint256","internalType":"uint256"}],"outputs":[{"name":"picture","type":"string","internalType":"string"},{"name":"location","type":"string","internalType":"string"},{"name":"datetime","type":"uint256","internalType":"uint256"},{"name":"consumed","type":"bool","internalType":"bool"},{"name":"originalOwner","type":"address","internalType":"address"},{"name":"eventType","type":"uint8","internalType":"enum BaseNFT.EventType"}],"stateMutability":"view"},{"type":"function","name":"owner","inputs":[],"outputs":[{"name":"","type":"address","internalType":"address"}],"stateMutability":"view"},{"type":"function","name":"ownerOf","inputs":[{"name":"tokenId","type":"uint256","internalType":"uint256"}],"outputs":[{"name":"","type":"address","internalType":"address"}],"stateMutability":"view"},{"type":"function","name":"renounceOwnership","inputs":[],"outputs":[],"stateMutability":"nonpayable"},{"type":"function","name":"safeTransferFrom","inputs":[{"name":"from","type":"address","internalType":"address"},{"name":"to","type":"address","internalType":"address"},{"name":"tokenId","type":"uint256","internalType":"uint256"}],"outputs":[],"stateMutability":"nonpayable"},{"type":"function","name":"safeTransferFrom","inputs":[{"name":"from","type":"address","internalType":"address"},{"name":"to","type":"address","internalType":"address"},{"name":"tokenId","type":"uint256","internalType":"uint256"},{"name":"data","type":"bytes","internalType":"bytes"}],"outputs":[],"stateMutability":"nonpayable"},{"type":"function","name":"setApprovalForAll","inputs":[{"name":"operator","type":"address","internalType":"address"},{"name":"approved","type":"bool","internalType":"bool"}],"outputs":[],"stateMutability":"nonpayable"},{"type":"function","name":"supportsInterface","inputs":[{"name":"interfaceId","type":"bytes4","internalType":"bytes4"}],"outputs":[{"name":"","type":"bool","internalType":"bool"}],"stateMutability":"view"},{"type":"function","name":"symbol","inputs":[],"outputs":[{"name":"","type":"string","internalType":"string"}],"stateMutability":"view"},{"type":"function","name":"tokenURI","inputs":[{"name":"tokenId","type":"uint256","internalType":"uint256"}],"outputs":[{"name":"","type":"string","internalType":"string"}],"stateMutability":"view"},{"type":"function","name":"totalSupply","inputs":[],"outputs":[{"name":"","type":"uint256","internalType":"uint256"}],"stateMutability":"view"},{"type":"function","name":"transferFrom","inputs":[{"name":"from","type":"address","internalType":"address"},{"name":"to","type":"address","internalType":"address"},{"name":"tokenId","type":"uint256","internalType":"uint256"}],"outputs":[],"stateMutability":"nonpayable"},{"type":"function","name":"transferOwnership","inputs":[{"name":"newOwner","type":"address","internalType":"address"}],"outputs":[],"stateMutability":"nonpayable"},{"type":"event","name":"Approval","inputs":[{"name":"owner","type":"address","indexed":true,"internalType":"address"},{"name":"approved","type":"address","indexed":true,"internalType":"address"},{"name":"tokenId","type":"uint256","indexed":true,"internalType":"uint256"}],"anonymous":false},{"type":"event","name":"ApprovalForAll","inputs":[{"name":"owner","type":"address","indexed":true,"internalType":"address"},{"name":"operator","type":"address","indexed":true,"internalType":"address"},{"name":"approved","type":"bool","indexed":false,"internalType":"bool"}],"anonymous":false},{"type":"event","name":"NFTConsumed","inputs":[{"name":"tokenId","type":"uint256","indexed":true,"internalType":"uint256"},{"name":"consumer","type":"address","indexed":true,"internalType":"address"}],"anonymous":false},{"type":"event","name":"NFTMinted","inputs":[{"name":"tokenId","type":"uint256","indexed":true,"internalType":"uint256"},{"name":"owner","type":"address","indexed":true,"internalType":"address"},{"name":"picture","type":"string","indexed":false,"internalType":"string"},{"name":"location","type":"string","indexed":false,"internalType":"string"},{"name":"datetime","type":"uint256","indexed":false,"internalType":"uint256"},{"name":"eventType","type":"uint8","indexed":false,"internalType":"enum BaseNFT.EventType"}],"anonymous":false},{"type":"event","name":"OwnershipTransferred","inputs":[{"name":"previousOwner","type":"address","indexed":true,"internalType":"address"},{"name":"newOwner","type":"address","indexed":true,"internalType":"address"}],"anonymous":false},{"type":"event","name":"Transfer","inputs":[{"name":"from","type":"address","indexed":true,"internalType":"address"},{"name":"to","type":"address","indexed":true,"internalType":"address"},{"name":"tokenId","type":"uint256","indexed":true,"internalType":"uint256"}],"anonymous":false},{"type":"error","name":"ERC721IncorrectOwner","inputs":[{"name":"sender","type":"address","internalType":"address"},{"name":"tokenId","type":"uint256","internalType":"uint256"},{"name":"owner","type":"address","internalType":"address"}]},{"type":"error","name":"ERC721InsufficientApproval","inputs":[{"name":"operator","type":"address","internalType":"address"},{"name":"tokenId","type":"uint256","internalType":"uint256"}]},{"type":"error","name":"ERC721InvalidApprover","inputs":[{"name":"approver","type":"address","internalType":"address"}]},{"type":"error","name":"ERC721InvalidOperator","inputs":[{"name":"operator","type":"address","internalType":"address"}]},{"type":"error","name":"ERC721InvalidOwner","inputs":[{"name":"owner","type":"address","internalType":"address"}]},{"type":"error","name":"ERC721InvalidReceiver","inputs":[{"name":"receiver","type":"address","internalType":"address"}]},{"type":"error","name":"ERC721InvalidSender","inputs":[{"name":"sender","type":"address","internalType":"address"}]},{"type":"error","name":"ERC721NonexistentToken","inputs":[{"name":"tokenId","type":"uint256","internalType":"uint256"}]},{"type":"error","name":"OwnableInvalidOwner","inputs":[{"name":"owner","type":"address","internalType":"address"}]},{"type":"error","name":"OwnableUnauthorizedAccount","inputs":[{"name":"account","type":"address","internalType":"address"}]},{"type":"error","name":"ReentrancyGuardReentrantCall","inputs":[]}],"bytecode":{"object":"0x608060405234801561000f575f5ffd5b5060405161387b38038061387b83398181016040528101906100319190610276565b806040518060400160405280601081526020017f4865726d6573204576656e74204e4654000000000000000000000000000000008152506040518060400160405280600581526020017f48454e4654000000000000000000000000000000000000000000000000000000815250815f90816100ac91906104de565b5080600190816100bc91906104de565b5050505f73ffffffffffffffffffffffffffffffffffffffff168173ffffffffffffffffffffffffffffffffffffffff160361012f575f6040517f1e4fbdf700000000000000000000000000000000000000000000000000000000815260040161012691906105bc565b60405180910390fd5b61013e8161015560201b60201c565b5060016007819055506001600881905550506105d5565b5f60065f9054906101000a900473ffffffffffffffffffffffffffffffffffffffff1690508160065f6101000a81548173ffffffffffffffffffffffffffffffffffffffff021916908373ffffffffffffffffffffffffffffffffffffffff1602179055508173ffffffffffffffffffffffffffffffffffffffff168173ffffffffffffffffffffffffffffffffffffffff167f8be0079c531659141344cd1fd0a4f28419497f9722a3daafe3b4186f6b6457e060405160405180910390a35050565b5f5ffd5b5f73ffffffffffffffffffffffffffffffffffffffff82169050919050565b5f6102458261021c565b9050919050565b6102558161023b565b811461025f575f5ffd5b50565b5f815190506102708161024c565b92915050565b5f6020828403121561028b5761028a610218565b5b5f61029884828501610262565b91505092915050565b5f81519050919050565b7f4e487b71000000000000000000000000000000000000000000000000000000005f52604160045260245ffd5b7f4e487b71000000000000000000000000000000000000000000000000000000005f52602260045260245ffd5b5f600282049050600182168061031c57607f821691505b60208210810361032f5761032e6102d8565b5b50919050565b5f819050815f5260205f209050919050565b5f6020601f8301049050919050565b5f82821b905092915050565b5f600883026103917fffffffffffffffffffffffffffffffffffffffffffffffffffffffffffffffff82610356565b61039b8683610356565b95508019841693508086168417925050509392505050565b5f819050919050565b5f819050919050565b5f6103df6103da6103d5846103b3565b6103bc565b6103b3565b9050919050565b5f819050919050565b6103f8836103c5565b61040c610404826103e6565b848454610362565b825550505050565b5f5f905090565b610423610414565b61042e8184846103ef565b505050565b5b81811015610451576104465f8261041b565b600181019050610434565b5050565b601f8211156104965761046781610335565b61047084610347565b8101602085101561047f578190505b61049361048b85610347565b830182610433565b50505b505050565b5f82821c905092915050565b5f6104b65f198460080261049b565b1980831691505092915050565b5f6104ce83836104a7565b9150826002028217905092915050565b6104e7826102a1565b67ffffffffffffffff811115610500576104ff6102ab565b5b61050a8254610305565b610515828285610455565b5f60209050601f831160018114610546575f8415610534578287015190505b61053e85826104c3565b8655506105a5565b601f19841661055486610335565b5f5b8281101561057b57848901518255600182019150602085019450602081019050610556565b868310156105985784890151610594601f8916826104a7565b8355505b6001600288020188555050505b505050505050565b6105b68161023b565b82525050565b5f6020820190506105cf5f8301846105ad565b92915050565b613299806105e25f395ff3fe608060405234801561000f575f5ffd5b5060043610610140575f3560e01c806370a08231116100b6578063a22cb4651161007a578063a22cb46514610391578063b88d4fde146103ad578063c87b56dd146103c9578063d7450a8d146103f9578063e985e9c514610429578063f2fde38b1461045957610140565b806370a08231146102e6578063715018a6146103165780638c210975146103205780638da5cb5b1461035557806395d89b411461037357610140565b806318160ddd1161010857806318160ddd1461021457806323b872dd1461023257806342842e0e1461024e578063483f31ab1461026a578063526e288f146102865780636352211e146102b657610140565b806301ffc9a71461014457806306fdde0314610174578063081812fc14610192578063095ea7b3146101c25780630ad4c4f4146101de575b5f5ffd5b61015e6004803603810190610159919061228f565b610475565b60405161016b91906122d4565b60405180910390f35b61017c610556565b604051610189919061235d565b60405180910390f35b6101ac60048036038101906101a791906123b0565b6105e5565b6040516101b9919061241a565b60405180910390f35b6101dc60048036038101906101d7919061245d565b610600565b005b6101f860048036038101906101f391906123b0565b610616565b60405161020b979695949392919061251d565b60405180910390f35b61021c610899565b6040516102299190612598565b60405180910390f35b61024c600480360381019061024791906125b1565b6108ae565b005b610268600480360381019061026391906125b1565b6109ad565b005b610284600480360381019061027f91906123b0565b6109cc565b005b6102a0600480360381019061029b9190612750565b610b6e565b6040516102ad9190612598565b60405180910390f35b6102d060048036038101906102cb91906123b0565b610e04565b6040516102dd919061241a565b60405180910390f35b61030060048036038101906102fb91906127ec565b610e15565b60405161030d9190612598565b60405180910390f35b61031e610ecb565b005b61033a600480360381019061033591906123b0565b610ede565b60405161034c96959493929190612817565b60405180910390f35b61035d61105b565b60405161036a919061241a565b60405180910390f35b61037b611083565b604051610388919061235d565b60405180910390f35b6103ab60048036038101906103a691906128ae565b611113565b005b6103c760048036038101906103c2919061298a565b611129565b005b6103e360048036038101906103de91906123b0565b61114e565b6040516103f0919061235d565b60405180910390f35b610413600480360381019061040e91906123b0565b6111b4565b60405161042091906122d4565b60405180910390f35b610443600480360381019061043e9190612a0a565b611225565b60405161045091906122d4565b60405180910390f35b610473600480360381019061046e91906127ec565b6112b3565b005b5f7f80ac58cd000000000000000000000000000000000000000000000000000000007bffffffffffffffffffffffffffffffffffffffffffffffffffffffff1916827bffffffffffffffffffffffffffffffffffffffffffffffffffffffff1916148061053f57507f5b5e139f000000000000000000000000000000000000000000000000000000007bffffffffffffffffffffffffffffffffffffffffffffffffffffffff1916827bffffffffffffffffffffffffffffffffffffffffffffffffffffffff1916145b8061054f575061054e82611337565b5b9050919050565b60605f805461056490612a75565b80601f016020809104026020016040519081016040528092919081815260200182805461059090612a75565b80156105db5780601f106105b2576101008083540402835291602001916105db565b820191905f5260205f20905b8154815290600101906020018083116105be57829003601f168201915b5050505050905090565b5f6105ef826113a0565b506105f982611426565b9050919050565b610612828261060d61145f565b611466565b5050565b6060805f5f5f5f5f61062788611478565b610666576040517f08c379a000000000000000000000000000000000000000000000000000000000815260040161065d90612aef565b60405180910390fd5b5f60095f8a81526020019081526020015f206040518060c00160405290815f8201805461069290612a75565b80601f01602080910402602001604051908101604052809291908181526020018280546106be90612a75565b80156107095780601f106106e057610100808354040283529160200191610709565b820191905f5260205f20905b8154815290600101906020018083116106ec57829003601f168201915b5050505050815260200160018201805461072290612a75565b80601f016020809104026020016040519081016040528092919081815260200182805461074e90612a75565b80156107995780601f1061077057610100808354040283529160200191610799565b820191905f5260205f20905b81548152906001019060200180831161077c57829003601f168201915b5050505050815260200160028201548152602001600382015f9054906101000a900460ff161515151581526020016003820160019054906101000a900473ffffffffffffffffffffffffffffffffffffffff1673ffffffffffffffffffffffffffffffffffffffff1673ffffffffffffffffffffffffffffffffffffffff1681526020016003820160159054906101000a900460ff166003811115610841576108406124aa565b5b6003811115610853576108526124aa565b5b815250509050805f0151816020015182604001518360600151846080015161087a8e610e04565b8660a00151975097509750975097509750975050919395979092949650565b5f60016008546108a99190612b3a565b905090565b5f73ffffffffffffffffffffffffffffffffffffffff168273ffffffffffffffffffffffffffffffffffffffff160361091e575f6040517f64a0ae92000000000000000000000000000000000000000000000000000000008152600401610915919061241a565b60405180910390fd5b5f610931838361092c61145f565b611490565b90508373ffffffffffffffffffffffffffffffffffffffff168173ffffffffffffffffffffffffffffffffffffffff16146109a7578382826040517f64283d7b00000000000000000000000000000000000000000000000000000000815260040161099e93929190612b6d565b60405180910390fd5b50505050565b6109c783838360405180602001604052805f815250611129565b505050565b6109d461169b565b6109dd81611478565b610a1c576040517f08c379a0000000000000000000000000000000000000000000000000000000008152600401610a1390612aef565b60405180910390fd5b60095f8281526020019081526020015f206003015f9054906101000a900460ff1615610a7d576040517f08c379a0000000000000000000000000000000000000000000000000000000008152600401610a7490612bec565b60405180910390fd5b610a8681610e04565b73ffffffffffffffffffffffffffffffffffffffff163373ffffffffffffffffffffffffffffffffffffffff1614610af3576040517f08c379a0000000000000000000000000000000000000000000000000000000008152600401610aea90612c7a565b60405180910390fd5b600160095f8381526020019081526020015f206003015f6101000a81548160ff0219169083151502179055503373ffffffffffffffffffffffffffffffffffffffff16817f9511bb4e559bae0e83e75fe34e8c344f5284298878acbcf6350066fb4911d7ab60405160405180910390a3610b6b6116e1565b50565b5f610b7761169b565b5f855111610bba576040517f08c379a0000000000000000000000000000000000000000000000000000000008152600401610bb190612ce2565b60405180910390fd5b5f845111610bfd576040517f08c379a0000000000000000000000000000000000000000000000000000000008152600401610bf490612d4a565b60405180910390fd5b5f8311610c3f576040517f08c379a0000000000000000000000000000000000000000000000000000000008152600401610c3690612db2565b60405180910390fd5b5f600854905060085f815480929190610c5790612dd0565b9190505550610c6633826116eb565b6040518060c001604052808781526020018681526020018581526020015f151581526020013373ffffffffffffffffffffffffffffffffffffffff168152602001846003811115610cba57610cb96124aa565b5b81525060095f8381526020019081526020015f205f820151815f019081610ce19190612fb7565b506020820151816001019081610cf79190612fb7565b50604082015181600201556060820151816003015f6101000a81548160ff02191690831515021790555060808201518160030160016101000a81548173ffffffffffffffffffffffffffffffffffffffff021916908373ffffffffffffffffffffffffffffffffffffffff16021790555060a08201518160030160156101000a81548160ff02191690836003811115610d9357610d926124aa565b5b02179055509050503373ffffffffffffffffffffffffffffffffffffffff16817fbc7966ada33ccf427d4f44a723ac9727b50f2a4c21a8463ba17aa19a2b51cb6488888888604051610de89493929190613086565b60405180910390a380915050610dfc6116e1565b949350505050565b5f610e0e826113a0565b9050919050565b5f5f73ffffffffffffffffffffffffffffffffffffffff168273ffffffffffffffffffffffffffffffffffffffff1603610e86575f6040517f89c62b64000000000000000000000000000000000000000000000000000000008152600401610e7d919061241a565b60405180910390fd5b60035f8373ffffffffffffffffffffffffffffffffffffffff1673ffffffffffffffffffffffffffffffffffffffff1681526020019081526020015f20549050919050565b610ed3611708565b610edc5f61178f565b565b6009602052805f5260405f205f91509050805f018054610efd90612a75565b80601f0160208091040260200160405190810160405280929190818152602001828054610f2990612a75565b8015610f745780601f10610f4b57610100808354040283529160200191610f74565b820191905f5260205f20905b815481529060010190602001808311610f5757829003601f168201915b505050505090806001018054610f8990612a75565b80601f0160208091040260200160405190810160405280929190818152602001828054610fb590612a75565b80156110005780601f10610fd757610100808354040283529160200191611000565b820191905f5260205f20905b815481529060010190602001808311610fe357829003601f168201915b505050505090806002015490806003015f9054906101000a900460ff16908060030160019054906101000a900473ffffffffffffffffffffffffffffffffffffffff16908060030160159054906101000a900460ff16905086565b5f60065f9054906101000a900473ffffffffffffffffffffffffffffffffffffffff16905090565b60606001805461109290612a75565b80601f01602080910402602001604051908101604052809291908181526020018280546110be90612a75565b80156111095780601f106110e057610100808354040283529160200191611109565b820191905f5260205f20905b8154815290600101906020018083116110ec57829003601f168201915b5050505050905090565b61112561111e61145f565b8383611852565b5050565b6111348484846108ae565b61114861113f61145f565b858585856119bb565b50505050565b6060611159826113a0565b505f611163611b67565b90505f8151116111815760405180602001604052805f8152506111ac565b8061118b84611b7d565b60405160200161119c929190613111565b6040516020818303038152906040525b915050919050565b5f6111be82611478565b6111fd576040517f08c379a00000000000000000000000000000000000000000000000000000000081526004016111f490612aef565b60405180910390fd5b60095f8381526020019081526020015f206003015f9054906101000a900460ff169050919050565b5f60055f8473ffffffffffffffffffffffffffffffffffffffff1673ffffffffffffffffffffffffffffffffffffffff1681526020019081526020015f205f8373ffffffffffffffffffffffffffffffffffffffff1673ffffffffffffffffffffffffffffffffffffffff1681526020019081526020015f205f9054906101000a900460ff16905092915050565b6112bb611708565b5f73ffffffffffffffffffffffffffffffffffffffff168173ffffffffffffffffffffffffffffffffffffffff160361132b575f6040517f1e4fbdf7000000000000000000000000000000000000000000000000000000008152600401611322919061241a565b60405180910390fd5b6113348161178f565b50565b5f7f01ffc9a7000000000000000000000000000000000000000000000000000000007bffffffffffffffffffffffffffffffffffffffffffffffffffffffff1916827bffffffffffffffffffffffffffffffffffffffffffffffffffffffff1916149050919050565b5f5f6113ab83611c47565b90505f73ffffffffffffffffffffffffffffffffffffffff168173ffffffffffffffffffffffffffffffffffffffff160361141d57826040517f7e2732890000000000000000000000000000000000000000000000000000000081526004016114149190612598565b60405180910390fd5b80915050919050565b5f60045f8381526020019081526020015f205f9054906101000a900473ffffffffffffffffffffffffffffffffffffffff169050919050565b5f33905090565b6114738383836001611c80565b505050565b5f5f82118015611489575060085482105b9050919050565b5f5f61149b84611c47565b90505f73ffffffffffffffffffffffffffffffffffffffff168373ffffffffffffffffffffffffffffffffffffffff16146114dc576114db818486611e3f565b5b5f73ffffffffffffffffffffffffffffffffffffffff168173ffffffffffffffffffffffffffffffffffffffff16146115675761151b5f855f5f611c80565b600160035f8373ffffffffffffffffffffffffffffffffffffffff1673ffffffffffffffffffffffffffffffffffffffff1681526020019081526020015f205f82825403925050819055505b5f73ffffffffffffffffffffffffffffffffffffffff168573ffffffffffffffffffffffffffffffffffffffff16146115e657600160035f8773ffffffffffffffffffffffffffffffffffffffff1673ffffffffffffffffffffffffffffffffffffffff1681526020019081526020015f205f82825401925050819055505b8460025f8681526020019081526020015f205f6101000a81548173ffffffffffffffffffffffffffffffffffffffff021916908373ffffffffffffffffffffffffffffffffffffffff160217905550838573ffffffffffffffffffffffffffffffffffffffff168273ffffffffffffffffffffffffffffffffffffffff167fddf252ad1be2c89b69c2b068fc378daa952ba7f163c4a11628f55a4df523b3ef60405160405180910390a4809150509392505050565b6002600754036116d7576040517f3ee5aeb500000000000000000000000000000000000000000000000000000000815260040160405180910390fd5b6002600781905550565b6001600781905550565b611704828260405180602001604052805f815250611f02565b5050565b61171061145f565b73ffffffffffffffffffffffffffffffffffffffff1661172e61105b565b73ffffffffffffffffffffffffffffffffffffffff161461178d5761175161145f565b6040517f118cdaa7000000000000000000000000000000000000000000000000000000008152600401611784919061241a565b60405180910390fd5b565b5f60065f9054906101000a900473ffffffffffffffffffffffffffffffffffffffff1690508160065f6101000a81548173ffffffffffffffffffffffffffffffffffffffff021916908373ffffffffffffffffffffffffffffffffffffffff1602179055508173ffffffffffffffffffffffffffffffffffffffff168173ffffffffffffffffffffffffffffffffffffffff167f8be0079c531659141344cd1fd0a4f28419497f9722a3daafe3b4186f6b6457e060405160405180910390a35050565b5f73ffffffffffffffffffffffffffffffffffffffff168273ffffffffffffffffffffffffffffffffffffffff16036118c257816040517f5b08ba180000000000000000000000000000000000000000000000000000000081526004016118b9919061241a565b60405180910390fd5b8060055f8573ffffffffffffffffffffffffffffffffffffffff1673ffffffffffffffffffffffffffffffffffffffff1681526020019081526020015f205f8473ffffffffffffffffffffffffffffffffffffffff1673ffffffffffffffffffffffffffffffffffffffff1681526020019081526020015f205f6101000a81548160ff0219169083151502179055508173ffffffffffffffffffffffffffffffffffffffff168373ffffffffffffffffffffffffffffffffffffffff167f17307eab39ab6107e8899845ad3d59bd9653f200f220920489ca2b5937696c31836040516119ae91906122d4565b60405180910390a3505050565b5f8373ffffffffffffffffffffffffffffffffffffffff163b1115611b60578273ffffffffffffffffffffffffffffffffffffffff1663150b7a02868685856040518563ffffffff1660e01b8152600401611a199493929190613186565b6020604051808303815f875af1925050508015611a5457506040513d601f19601f82011682018060405250810190611a5191906131e4565b60015b611ad5573d805f8114611a82576040519150601f19603f3d011682016040523d82523d5f602084013e611a87565b606091505b505f815103611acd57836040517f64a0ae92000000000000000000000000000000000000000000000000000000008152600401611ac4919061241a565b60405180910390fd5b805160208201fd5b63150b7a0260e01b7bffffffffffffffffffffffffffffffffffffffffffffffffffffffff1916817bffffffffffffffffffffffffffffffffffffffffffffffffffffffff191614611b5e57836040517f64a0ae92000000000000000000000000000000000000000000000000000000008152600401611b55919061241a565b60405180910390fd5b505b5050505050565b606060405180602001604052805f815250905090565b60605f6001611b8b84611f25565b0190505f8167ffffffffffffffff811115611ba957611ba8612609565b5b6040519080825280601f01601f191660200182016040528015611bdb5781602001600182028036833780820191505090505b5090505f82602083010190505b600115611c3c578080600190039150507f3031323334353637383961626364656600000000000000000000000000000000600a86061a8153600a8581611c3157611c3061320f565b5b0494505f8503611be8575b819350505050919050565b5f60025f8381526020019081526020015f205f9054906101000a900473ffffffffffffffffffffffffffffffffffffffff169050919050565b8080611cb857505f73ffffffffffffffffffffffffffffffffffffffff168273ffffffffffffffffffffffffffffffffffffffff1614155b15611dea575f611cc7846113a0565b90505f73ffffffffffffffffffffffffffffffffffffffff168373ffffffffffffffffffffffffffffffffffffffff1614158015611d3157508273ffffffffffffffffffffffffffffffffffffffff168173ffffffffffffffffffffffffffffffffffffffff1614155b8015611d445750611d428184611225565b155b15611d8657826040517fa9fbf51f000000000000000000000000000000000000000000000000000000008152600401611d7d919061241a565b60405180910390fd5b8115611de857838573ffffffffffffffffffffffffffffffffffffffff168273ffffffffffffffffffffffffffffffffffffffff167f8c5be1e5ebec7d5bd14f71427d1e84f3dd0314c0f7b2291e5b200ac8c7c3b92560405160405180910390a45b505b8360045f8581526020019081526020015f205f6101000a81548173ffffffffffffffffffffffffffffffffffffffff021916908373ffffffffffffffffffffffffffffffffffffffff16021790555050505050565b611e4a838383612076565b611efd575f73ffffffffffffffffffffffffffffffffffffffff168373ffffffffffffffffffffffffffffffffffffffff1603611ebe57806040517f7e273289000000000000000000000000000000000000000000000000000000008152600401611eb59190612598565b60405180910390fd5b81816040517f177e802f000000000000000000000000000000000000000000000000000000008152600401611ef492919061323c565b60405180910390fd5b505050565b611f0c8383612136565b611f20611f1761145f565b5f8585856119bb565b505050565b5f5f5f90507a184f03e93ff9f4daa797ed6e38ed64bf6a1f0100000000000000008310611f81577a184f03e93ff9f4daa797ed6e38ed64bf6a1f0100000000000000008381611f7757611f7661320f565b5b0492506040810190505b6d04ee2d6d415b85acef81000000008310611fbe576d04ee2d6d415b85acef81000000008381611fb457611fb361320f565b5b0492506020810190505b662386f26fc100008310611fed57662386f26fc100008381611fe357611fe261320f565b5b0492506010810190505b6305f5e1008310612016576305f5e100838161200c5761200b61320f565b5b0492506008810190505b612710831061203b5761271083816120315761203061320f565b5b0492506004810190505b6064831061205e57606483816120545761205361320f565b5b0492506002810190505b600a831061206d576001810190505b80915050919050565b5f5f73ffffffffffffffffffffffffffffffffffffffff168373ffffffffffffffffffffffffffffffffffffffff161415801561212d57508273ffffffffffffffffffffffffffffffffffffffff168473ffffffffffffffffffffffffffffffffffffffff1614806120ee57506120ed8484611225565b5b8061212c57508273ffffffffffffffffffffffffffffffffffffffff1661211483611426565b73ffffffffffffffffffffffffffffffffffffffff16145b5b90509392505050565b5f73ffffffffffffffffffffffffffffffffffffffff168273ffffffffffffffffffffffffffffffffffffffff16036121a6575f6040517f64a0ae9200000000000000000000000000000000000000000000000000000000815260040161219d919061241a565b60405180910390fd5b5f6121b283835f611490565b90505f73ffffffffffffffffffffffffffffffffffffffff168173ffffffffffffffffffffffffffffffffffffffff1614612224575f6040517f73c6ac6e00000000000000000000000000000000000000000000000000000000815260040161221b919061241a565b60405180910390fd5b505050565b5f604051905090565b5f5ffd5b5f5ffd5b5f7fffffffff0000000000000000000000000000000000000000000000000000000082169050919050565b61226e8161223a565b8114612278575f5ffd5b50565b5f8135905061228981612265565b92915050565b5f602082840312156122a4576122a3612232565b5b5f6122b18482850161227b565b91505092915050565b5f8115159050919050565b6122ce816122ba565b82525050565b5f6020820190506122e75f8301846122c5565b92915050565b5f81519050919050565b5f82825260208201905092915050565b8281835e5f83830152505050565b5f601f19601f8301169050919050565b5f61232f826122ed565b61233981856122f7565b9350612349818560208601612307565b61235281612315565b840191505092915050565b5f6020820190508181035f8301526123758184612325565b905092915050565b5f819050919050565b61238f8161237d565b8114612399575f5ffd5b50565b5f813590506123aa81612386565b92915050565b5f602082840312156123c5576123c4612232565b5b5f6123d28482850161239c565b91505092915050565b5f73ffffffffffffffffffffffffffffffffffffffff82169050919050565b5f612404826123db565b9050919050565b612414816123fa565b82525050565b5f60208201905061242d5f83018461240b565b92915050565b61243c816123fa565b8114612446575f5ffd5b50565b5f8135905061245781612433565b92915050565b5f5f6040838503121561247357612472612232565b5b5f61248085828601612449565b92505060206124918582860161239c565b9150509250929050565b6124a48161237d565b82525050565b7f4e487b71000000000000000000000000000000000000000000000000000000005f52602160045260245ffd5b600481106124e8576124e76124aa565b5b50565b5f8190506124f8826124d7565b919050565b5f612507826124eb565b9050919050565b612517816124fd565b82525050565b5f60e0820190508181035f830152612535818a612325565b905081810360208301526125498189612325565b9050612558604083018861249b565b61256560608301876122c5565b612572608083018661240b565b61257f60a083018561240b565b61258c60c083018461250e565b98975050505050505050565b5f6020820190506125ab5f83018461249b565b92915050565b5f5f5f606084860312156125c8576125c7612232565b5b5f6125d586828701612449565b93505060206125e686828701612449565b92505060406125f78682870161239c565b9150509250925092565b5f5ffd5b5f5ffd5b7f4e487b71000000000000000000000000000000000000000000000000000000005f52604160045260245ffd5b61263f82612315565b810181811067ffffffffffffffff8211171561265e5761265d612609565b5b80604052505050565b5f612670612229565b905061267c8282612636565b919050565b5f67ffffffffffffffff82111561269b5761269a612609565b5b6126a482612315565b9050602081019050919050565b828183375f83830152505050565b5f6126d16126cc84612681565b612667565b9050828152602081018484840111156126ed576126ec612605565b5b6126f88482856126b1565b509392505050565b5f82601f83011261271457612713612601565b5b81356127248482602086016126bf565b91505092915050565b60048110612739575f5ffd5b50565b5f8135905061274a8161272d565b92915050565b5f5f5f5f6080858703121561276857612767612232565b5b5f85013567ffffffffffffffff81111561278557612784612236565b5b61279187828801612700565b945050602085013567ffffffffffffffff8111156127b2576127b1612236565b5b6127be87828801612700565b93505060406127cf8782880161239c565b92505060606127e08782880161273c565b91505092959194509250565b5f6020828403121561280157612800612232565b5b5f61280e84828501612449565b91505092915050565b5f60c0820190508181035f83015261282f8189612325565b905081810360208301526128438188612325565b9050612852604083018761249b565b61285f60608301866122c5565b61286c608083018561240b565b61287960a083018461250e565b979650505050505050565b61288d816122ba565b8114612897575f5ffd5b50565b5f813590506128a881612884565b92915050565b5f5f604083850312156128c4576128c3612232565b5b5f6128d185828601612449565b92505060206128e28582860161289a565b9150509250929050565b5f67ffffffffffffffff82111561290657612905612609565b5b61290f82612315565b9050602081019050919050565b5f61292e612929846128ec565b612667565b90508281526020810184848401111561294a57612949612605565b5b6129558482856126b1565b509392505050565b5f82601f83011261297157612970612601565b5b813561298184826020860161291c565b91505092915050565b5f5f5f5f608085870312156129a2576129a1612232565b5b5f6129af87828801612449565b94505060206129c087828801612449565b93505060406129d18782880161239c565b925050606085013567ffffffffffffffff8111156129f2576129f1612236565b5b6129fe8782880161295d565b91505092959194509250565b5f5f60408385031215612a2057612a1f612232565b5b5f612a2d85828601612449565b9250506020612a3e85828601612449565b9150509250929050565b7f4e487b71000000000000000000000000000000000000000000000000000000005f52602260045260245ffd5b5f6002820490506001821680612a8c57607f821691505b602082108103612a9f57612a9e612a48565b5b50919050565b7f546f6b656e20646f6573206e6f742065786973740000000000000000000000005f82015250565b5f612ad96014836122f7565b9150612ae482612aa5565b602082019050919050565b5f6020820190508181035f830152612b0681612acd565b9050919050565b7f4e487b71000000000000000000000000000000000000000000000000000000005f52601160045260245ffd5b5f612b448261237d565b9150612b4f8361237d565b9250828203905081811115612b6757612b66612b0d565b5b92915050565b5f606082019050612b805f83018661240b565b612b8d602083018561249b565b612b9a604083018461240b565b949350505050565b7f546f6b656e20616c726561647920636f6e73756d6564000000000000000000005f82015250565b5f612bd66016836122f7565b9150612be182612ba2565b602082019050919050565b5f6020820190508181035f830152612c0381612bca565b9050919050565b7f4f6e6c792063757272656e74206f776e65722063616e20636f6e73756d6520745f8201527f686973204e465400000000000000000000000000000000000000000000000000602082015250565b5f612c646027836122f7565b9150612c6f82612c0a565b604082019050919050565b5f6020820190508181035f830152612c9181612c58565b9050919050565b7f506963747572652055524c2063616e6e6f7420626520656d70747900000000005f82015250565b5f612ccc601b836122f7565b9150612cd782612c98565b602082019050919050565b5f6020820190508181035f830152612cf981612cc0565b9050919050565b7f4c6f636174696f6e2063616e6e6f7420626520656d70747900000000000000005f82015250565b5f612d346018836122f7565b9150612d3f82612d00565b602082019050919050565b5f6020820190508181035f830152612d6181612d28565b9050919050565b7f4461746574696d65206d757374206265207365740000000000000000000000005f82015250565b5f612d9c6014836122f7565b9150612da782612d68565b602082019050919050565b5f6020820190508181035f830152612dc981612d90565b9050919050565b5f612dda8261237d565b91507fffffffffffffffffffffffffffffffffffffffffffffffffffffffffffffffff8203612e0c57612e0b612b0d565b5b600182019050919050565b5f819050815f5260205f209050919050565b5f6020601f8301049050919050565b5f82821b905092915050565b5f60088302612e737fffffffffffffffffffffffffffffffffffffffffffffffffffffffffffffffff82612e38565b612e7d8683612e38565b95508019841693508086168417925050509392505050565b5f819050919050565b5f612eb8612eb3612eae8461237d565b612e95565b61237d565b9050919050565b5f819050919050565b612ed183612e9e565b612ee5612edd82612ebf565b848454612e44565b825550505050565b5f5f905090565b612efc612eed565b612f07818484612ec8565b505050565b5b81811015612f2a57612f1f5f82612ef4565b600181019050612f0d565b5050565b601f821115612f6f57612f4081612e17565b612f4984612e29565b81016020851015612f58578190505b612f6c612f6485612e29565b830182612f0c565b50505b505050565b5f82821c905092915050565b5f612f8f5f1984600802612f74565b1980831691505092915050565b5f612fa78383612f80565b9150826002028217905092915050565b612fc0826122ed565b67ffffffffffffffff811115612fd957612fd8612609565b5b612fe38254612a75565b612fee828285612f2e565b5f60209050601f83116001811461301f575f841561300d578287015190505b6130178582612f9c565b86555061307e565b601f19841661302d86612e17565b5f5b828110156130545784890151825560018201915060208501945060208101905061302f565b86831015613071578489015161306d601f891682612f80565b8355505b6001600288020188555050505b505050505050565b5f6080820190508181035f83015261309e8187612325565b905081810360208301526130b28186612325565b90506130c1604083018561249b565b6130ce606083018461250e565b95945050505050565b5f81905092915050565b5f6130eb826122ed565b6130f581856130d7565b9350613105818560208601612307565b80840191505092915050565b5f61311c82856130e1565b915061312882846130e1565b91508190509392505050565b5f81519050919050565b5f82825260208201905092915050565b5f61315882613134565b613162818561313e565b9350613172818560208601612307565b61317b81612315565b840191505092915050565b5f6080820190506131995f83018761240b565b6131a6602083018661240b565b6131b3604083018561249b565b81810360608301526131c5818461314e565b905095945050505050565b5f815190506131de81612265565b92915050565b5f602082840312156131f9576131f8612232565b5b5f613206848285016131d0565b91505092915050565b7f4e487b71000000000000000000000000000000000000000000000000000000005f52601260045260245ffd5b5f60408201905061324f5f83018561240b565b61325c602083018461249b565b939250505056fea2646970667358221220410b463e38c2c4ef5c59c3ebc5a108fe05ba0bd805f60a0813e8e2a043ce33b264736f6c634300081e0033","linkReferences":{}},"methodIdentifiers":{"approve(address,uint256)":"095ea7b3","balanceOf(address)":"70a08231","consume(uint256)":"483f31ab","getApproved(uint256)":"081812fc","getNFTData(uint256)":"0ad4c4f4","isApprovedForAll(address,address)":"e985e9c5","isConsumed(uint256)":"d7450a8d","mint(string,string,uint256,uint8)":"526e288f","name()":"06fdde03","nftData(uint256)":"8c210975","owner()":"8da5cb5b","ownerOf(uint256)":"6352211e","renounceOwnership()":"715018a6","safeTransferFrom(address,address,uint256)":"42842e0e","safeTransferFrom(address,address,uint256,bytes)":"b88d4fde","setApprovalForAll(address,bool)":"a22cb465","supportsInterface(bytes4)":"01ffc9a7","symbol()":"95d89b41","tokenURI(uint256)":"c87b56dd","totalSupply()":"18160ddd","transferFrom(address,address,uint256)":"23b872dd","transferOwnership(address)":"f2fde38b"},"id":0}