{"abi":[{"type":"constructor","inputs":[{"name":"initialOwner","type":"address","internalType":"address"},{"name":"_baseNFT","type":"address","internalType":"address"},{"name":"_ethUsdPriceFeed","type":"address","internalType":"address"}],"stateMutability":"nonpayable"},{"type":"function","name":"baseNFT","inputs":[],"outputs":[{"name":"","type":"address","internalType":"contract BaseNFT"}],"stateMutability":"view"},{"type":"function","name":"buyNow","inputs":[{"name":"saleId","type":"uint256","internalType":"uint256"}],"outputs":[],"stateMutability":"payable"},{"type":"function","name":"cancelSale","inputs":[{"name":"saleId","type":"uint256","internalType":"uint256"}],"outputs":[],"stateMutability":"nonpayable"},{"type":"function","name":"ethToUsd","inputs":[{"name":"ethAmount","type":"uint256","internalType":"uint256"}],"outputs":[{"name":"","type":"uint256","internalType":"uint256"}],"stateMutability":"view"},{"type":"function","name":"ethUsdPriceFeed","inputs":[],"outputs":[{"name":"","type":"address","internalType":"contract AggregatorV3Interface"}],"stateMutability":"view"},{"type":"function","name":"finalizeSale","inputs":[{"name":"saleId","type":"uint256","internalType":"uint256"}],"outputs":[],"stateMutability":"nonpayable"},{"type":"function","name":"getCurrentPrice","inputs":[{"name":"saleId","type":"uint256","internalType":"uint256"}],"outputs":[{"name":"usdPrice","type":"uint256","internalType":"uint256"},{"name":"ethPrice","type":"uint256","internalType":"uint256"}],"stateMutability":"view"},{"type":"function","name":"getEthPrice","inputs":[],"outputs":[{"name":"","type":"uint256","internalType":"uint256"}],"stateMutability":"view"},{"type":"function","name":"getRequiredEthForBuyNow","inputs":[{"name":"saleId","type":"uint256","internalType":"uint256"}],"outputs":[{"name":"","type":"uint256","internalType":"uint256"}],"stateMutability":"view"},{"type":"function","name":"getSale","inputs":[{"name":"saleId","type":"uint256","internalType":"uint256"}],"outputs":[{"name":"","type":"tuple","internalType":"struct Marketplace.Sale","components":[{"name":"seller","type":"address","internalType":"address"},{"name":"tokenId","type":"uint256","internalType":"uint256"},{"name":"listPriceUsd","type":"uint256","internalType":"uint256"},{"name":"buyNowPriceUsd","type":"uint256","internalType":"uint256"},{"name":"currentBidUsd","type":"uint256","internalType":"uint256"},{"name":"currentBidder","type":"address","internalType":"address"},{"name":"endTime","type":"uint256","internalType":"uint256"},{"name":"active","type":"bool","internalType":"bool"}]}],"stateMutability":"view"},{"type":"function","name":"listNFT","inputs":[{"name":"tokenId","type":"uint256","internalType":"uint256"},{"name":"listPriceUsd","type":"uint256","internalType":"uint256"},{"name":"buyNowPriceUsd","type":"uint256","internalType":"uint256"},{"name":"duration","type":"uint256","internalType":"uint256"}],"outputs":[{"name":"","type":"uint256","internalType":"uint256"}],"stateMutability":"nonpayable"},{"type":"function","name":"nextSaleId","inputs":[],"outputs":[{"name":"","type":"uint256","internalType":"uint256"}],"stateMutability":"view"},{"type":"function","name":"owner","inputs":[],"outputs":[{"name":"","type":"address","internalType":"address"}],"stateMutability":"view"},{"type":"function","name":"placeBid","inputs":[{"name":"saleId","type":"uint256","internalType":"uint256"}],"outputs":[],"stateMutability":"payable"},{"type":"function","name":"renounceOwnership","inputs":[],"outputs":[],"stateMutability":"nonpayable"},{"type":"function","name":"sales","inputs":[{"name":"","type":"uint256","internalType":"uint256"}],"outputs":[{"name":"seller","type":"address","internalType":"address"},{"name":"tokenId","type":"uint256","internalType":"uint256"},{"name":"listPriceUsd","type":"uint256","internalType":"uint256"},{"name":"buyNowPriceUsd","type":"uint256","internalType":"uint256"},{"name":"currentBidUsd","type":"uint256","internalType":"uint256"},{"name":"currentBidder","type":"address","internalType":"address"},{"name":"endTime","type":"uint256","internalType":"uint256"},{"name":"active","type":"bool","internalType":"bool"}],"stateMutability":"view"},{"type":"function","name":"transferOwnership","inputs":[{"name":"newOwner","type":"address","internalType":"address"}],"outputs":[],"stateMutability":"nonpayable"},{"type":"function","name":"usdToEth","inputs":[{"name":"usdAmount","type":"uint256","internalType":"uint256"}],"outputs":[{"name":"","type":"uint256","internalType":"uint256"}],"stateMutability":"view"},{"type":"event","name":"BidPlaced","inputs":[{"name":"saleId","type":"uint256","indexed":true,"internalType":"uint256"},{"name":"bidder","type":"address","indexed":true,"internalType":"address"},{"name":"bidUsd","type":"uint256","indexed":false,"internalType":"uint256"},{"name":"ethAmount","type":"uint256","indexed":false,"internalType":"uint256"}],"anonymous":false},{"type":"event","name":"NFTListed","inputs":[{"name":"saleId","type":"uint256","indexed":true,"internalType":"uint256"},{"name":"seller","type":"address","indexed":true,"internalType":"address"},{"name":"tokenId","type":"uint256","indexed":true,"internalType":"uint256"},{"name":"listPriceUsd","type":"uint256","indexed":false,"internalType":"uint256"},{"name":"buyNowPriceUsd","type":"uint256","indexed":false,"internalType":"uint256"},{"name":"endTime","type":"uint256","indexed":false,"internalType":"uint256"}],"anonymous":false},{"type":"event","name":"NFTSold","inputs":[{"name":"saleId","type":"uint256","indexed":true,"internalType":"uint256"},{"name":"buyer","type":"address","indexed":true,"internalType":"address"},{"name":"priceUsd","type":"uint256","indexed":false,"internalType":"uint256"},{"name":"ethAmount","type":"uint256","indexed":false,"internalType":"uint256"}],"anonymous":false},{"type":"event","name":"OwnershipTransferred","inputs":[{"name":"previousOwner","type":"address","indexed":true,"internalType":"address"},{"name":"newOwner","type":"address","indexed":true,"internalType":"address"}],"anonymous":false},{"type":"error","name":"OwnableInvalidOwner","inputs":[{"name":"owner","type":"address","internalType":"address"}]},{"type":"error","name":"OwnableUnauthorizedAccount","inputs":[{"name":"account","type":"address","internalType":"address"}]},{"type":"error","name":"ReentrancyGuardReentrantCall","inputs":[]}],"bytecode":{"object":"0x60c06040526001600355348015610014575f5ffd5b506040516131283803806131288339818101604052810190610036919061024f565b8260015f819055505f73ffffffffffffffffffffffffffffffffffffffff168173ffffffffffffffffffffffffffffffffffffffff16036100ae575f6040517f1e4fbdf70000000000000000000000000000000000000000000000000000000081526004016100a591906102ae565b60405180910390fd5b6100bd8161012e60201b60201c565b508173ffffffffffffffffffffffffffffffffffffffff1660808173ffffffffffffffffffffffffffffffffffffffff16815250508073ffffffffffffffffffffffffffffffffffffffff1660a08173ffffffffffffffffffffffffffffffffffffffff16815250505050506102c7565b5f60015f9054906101000a900473ffffffffffffffffffffffffffffffffffffffff1690508160015f6101000a81548173ffffffffffffffffffffffffffffffffffffffff021916908373ffffffffffffffffffffffffffffffffffffffff1602179055508173ffffffffffffffffffffffffffffffffffffffff168173ffffffffffffffffffffffffffffffffffffffff167f8be0079c531659141344cd1fd0a4f28419497f9722a3daafe3b4186f6b6457e060405160405180910390a35050565b5f5ffd5b5f73ffffffffffffffffffffffffffffffffffffffff82169050919050565b5f61021e826101f5565b9050919050565b61022e81610214565b8114610238575f5ffd5b50565b5f8151905061024981610225565b92915050565b5f5f5f60608486031215610266576102656101f1565b5b5f6102738682870161023b565b93505060206102848682870161023b565b92505060406102958682870161023b565b9150509250925092565b6102a881610214565b82525050565b5f6020820190506102c15f83018461029f565b92915050565b60805160a051612df36103355f395f81816106500152610d2c01525f81816105040152818161073c0152818161082b01528181610930015281816109e501528181610c3f01528181610e0801528181610f4c0152818161137d015281816116790152611b2d0152612df35ff3fe608060405260043610610108575f3560e01c8063aa92938011610094578063c55d0f5611610063578063c55d0f5614610349578063d8f6d59614610386578063dd4af9c5146103c2578063deb077b9146103fe578063f2fde38b1461042857610108565b8063aa9293801461027a578063b5f522f7146102a2578063bcecf667146102e5578063bd94b0051461032157610108565b8063687fff22116100db578063687fff22146101b8578063715018a6146101e25780638da5cb5b146101f8578063946d1480146102225780639979ef451461025e57610108565b806308a0f32f1461010c57806342f6fb291461012857806345432dbb1461015257806367c9b0171461018e575b5f5ffd5b61012660048036038101906101219190611f9f565b610450565b005b348015610133575f5ffd5b5061013c61064e565b6040516101499190612044565b60405180910390f35b34801561015d575f5ffd5b506101786004803603810190610173919061205d565b610672565b60405161018591906120d0565b60405180910390f35b348015610199575f5ffd5b506101a2610d28565b6040516101af91906120d0565b60405180910390f35b3480156101c3575f5ffd5b506101cc610e06565b6040516101d99190612109565b60405180910390f35b3480156101ed575f5ffd5b506101f6610e2a565b005b348015610203575f5ffd5b5061020c610e3d565b6040516102199190612142565b60405180910390f35b34801561022d575f5ffd5b5061024860048036038101906102439190611f9f565b610e65565b60405161025591906120d0565b60405180910390f35b61027860048036038101906102739190611f9f565b610e98565b005b348015610285575f5ffd5b506102a0600480360381019061029b9190611f9f565b611237565b005b3480156102ad575f5ffd5b506102c860048036038101906102c39190611f9f565b6114a7565b6040516102dc989796959493929190612175565b60405180910390f35b3480156102f0575f5ffd5b5061030b60048036038101906103069190611f9f565b611535565b60405161031891906120d0565b60405180910390f35b34801561032c575f5ffd5b5061034760048036038101906103429190611f9f565b611568565b005b348015610354575f5ffd5b5061036f600480360381019061036a9190611f9f565b6117fa565b60405161037d9291906121f1565b60405180910390f35b348015610391575f5ffd5b506103ac60048036038101906103a79190611f9f565b611893565b6040516103b991906122e5565b60405180910390f35b3480156103cd575f5ffd5b506103e860048036038101906103e39190611f9f565b6119b4565b6040516103f591906120d0565b60405180910390f35b348015610409575f5ffd5b50610412611a2e565b60405161041f91906120d0565b60405180910390f35b348015610433575f5ffd5b5061044e60048036038101906104499190612329565b611a34565b005b610458611ab8565b5f60025f8381526020019081526020015f209050806007015f9054906101000a900460ff166104bc576040517f08c379a00000000000000000000000000000000000000000000000000000000081526004016104b3906123ae565b60405180910390fd5b80600601544210610502576040517f08c379a00000000000000000000000000000000000000000000000000000000081526004016104f990612416565b60405180910390fd5b7f000000000000000000000000000000000000000000000000000000000000000073ffffffffffffffffffffffffffffffffffffffff1663d7450a8d82600101546040518263ffffffff1660e01b815260040161055f91906120d0565b602060405180830381865afa15801561057a573d5f5f3e3d5ffd5b505050506040513d601f19601f8201168201806040525081019061059e919061245e565b156105de576040517f08c379a00000000000000000000000000000000000000000000000000000000081526004016105d5906124d3565b60405180910390fd5b5f6105ec8260030154611535565b905080341015610631576040517f08c379a00000000000000000000000000000000000000000000000000000000081526004016106289061253b565b60405180910390fd5b6106418333846003015434611afc565b505061064b611da3565b50565b7f000000000000000000000000000000000000000000000000000000000000000081565b5f5f84116106b5576040517f08c379a00000000000000000000000000000000000000000000000000000000081526004016106ac906125c9565b60405180910390fd5b838310156106f8576040517f08c379a00000000000000000000000000000000000000000000000000000000081526004016106ef90612657565b60405180910390fd5b5f821161073a576040517f08c379a0000000000000000000000000000000000000000000000000000000008152600401610731906126bf565b60405180910390fd5b7f000000000000000000000000000000000000000000000000000000000000000073ffffffffffffffffffffffffffffffffffffffff1663d7450a8d866040518263ffffffff1660e01b815260040161079391906120d0565b602060405180830381865afa1580156107ae573d5f5f3e3d5ffd5b505050506040513d601f19601f820116820180604052508101906107d2919061245e565b15610812576040517f08c379a000000000000000000000000000000000000000000000000000000000815260040161080990612727565b60405180910390fd5b3373ffffffffffffffffffffffffffffffffffffffff167f000000000000000000000000000000000000000000000000000000000000000073ffffffffffffffffffffffffffffffffffffffff16636352211e876040518263ffffffff1660e01b815260040161088291906120d0565b602060405180830381865afa15801561089d573d5f5f3e3d5ffd5b505050506040513d601f19601f820116820180604052508101906108c19190612759565b73ffffffffffffffffffffffffffffffffffffffff1614610917576040517f08c379a000000000000000000000000000000000000000000000000000000000815260040161090e906127ce565b60405180910390fd5b3073ffffffffffffffffffffffffffffffffffffffff167f000000000000000000000000000000000000000000000000000000000000000073ffffffffffffffffffffffffffffffffffffffff1663081812fc876040518263ffffffff1660e01b815260040161098791906120d0565b602060405180830381865afa1580156109a2573d5f5f3e3d5ffd5b505050506040513d601f19601f820116820180604052508101906109c69190612759565b73ffffffffffffffffffffffffffffffffffffffff161480610a7e57507f000000000000000000000000000000000000000000000000000000000000000073ffffffffffffffffffffffffffffffffffffffff1663e985e9c533306040518363ffffffff1660e01b8152600401610a3e9291906127ec565b602060405180830381865afa158015610a59573d5f5f3e3d5ffd5b505050506040513d601f19601f82011682018060405250810190610a7d919061245e565b5b610abd576040517f08c379a0000000000000000000000000000000000000000000000000000000008152600401610ab49061285d565b60405180910390fd5b5f60035f815480929190610ad0906128a8565b9190505590505f8342610ae391906128ef565b90506040518061010001604052803373ffffffffffffffffffffffffffffffffffffffff1681526020018881526020018781526020018681526020015f81526020015f73ffffffffffffffffffffffffffffffffffffffff1681526020018281526020016001151581525060025f8481526020019081526020015f205f820151815f015f6101000a81548173ffffffffffffffffffffffffffffffffffffffff021916908373ffffffffffffffffffffffffffffffffffffffff1602179055506020820151816001015560408201518160020155606082015181600301556080820151816004015560a0820151816005015f6101000a81548173ffffffffffffffffffffffffffffffffffffffff021916908373ffffffffffffffffffffffffffffffffffffffff16021790555060c0820151816006015560e0820151816007015f6101000a81548160ff0219169083151502179055509050507f000000000000000000000000000000000000000000000000000000000000000073ffffffffffffffffffffffffffffffffffffffff166323b872dd33308a6040518463ffffffff1660e01b8152600401610c9a93929190612922565b5f604051808303815f87803b158015610cb1575f5ffd5b505af1158015610cc3573d5f5f3e3d5ffd5b50505050863373ffffffffffffffffffffffffffffffffffffffff16837f97c52019f6b747fdf3bacf0d74455e4df20d89b9c84e5142225f24f7392d5f06898986604051610d1393929190612957565b60405180910390a48192505050949350505050565b5f5f7f000000000000000000000000000000000000000000000000000000000000000073ffffffffffffffffffffffffffffffffffffffff1663feaf968c6040518163ffffffff1660e01b815260040160a060405180830381865afa158015610d93573d5f5f3e3d5ffd5b505050506040513d601f19601f82011682018060405250810190610db79190612a12565b5050509150505f8113610dff576040517f08c379a0000000000000000000000000000000000000000000000000000000008152600401610df690612ad3565b60405180910390fd5b8091505090565b7f000000000000000000000000000000000000000000000000000000000000000081565b610e32611dac565b610e3b5f611e33565b565b5f60015f9054906101000a900473ffffffffffffffffffffffffffffffffffffffff16905090565b5f5f610e6f610d28565b9050670de0b6b3a76400008184610e869190612af1565b610e909190612b5f565b915050919050565b610ea0611ab8565b5f60025f8381526020019081526020015f209050806007015f9054906101000a900460ff16610f04576040517f08c379a0000000000000000000000000000000000000000000000000000000008152600401610efb906123ae565b60405180910390fd5b80600601544210610f4a576040517f08c379a0000000000000000000000000000000000000000000000000000000008152600401610f4190612416565b60405180910390fd5b7f000000000000000000000000000000000000000000000000000000000000000073ffffffffffffffffffffffffffffffffffffffff1663d7450a8d82600101546040518263ffffffff1660e01b8152600401610fa791906120d0565b602060405180830381865afa158015610fc2573d5f5f3e3d5ffd5b505050506040513d601f19601f82011682018060405250810190610fe6919061245e565b15611026576040517f08c379a000000000000000000000000000000000000000000000000000000000815260040161101d906124d3565b60405180910390fd5b5f61103034610e65565b90508160020154811015611079576040517f08c379a000000000000000000000000000000000000000000000000000000000815260040161107090612bd9565b60405180910390fd5b816004015481116110bf576040517f08c379a00000000000000000000000000000000000000000000000000000000081526004016110b690612c67565b60405180910390fd5b5f73ffffffffffffffffffffffffffffffffffffffff16826005015f9054906101000a900473ffffffffffffffffffffffffffffffffffffffff1673ffffffffffffffffffffffffffffffffffffffff161461118e575f6111238360040154611535565b9050826005015f9054906101000a900473ffffffffffffffffffffffffffffffffffffffff1673ffffffffffffffffffffffffffffffffffffffff166108fc8290811502906040515f60405180830381858888f1935050505015801561118b573d5f5f3e3d5ffd5b50505b80826004018190555033826005015f6101000a81548173ffffffffffffffffffffffffffffffffffffffff021916908373ffffffffffffffffffffffffffffffffffffffff1602179055503373ffffffffffffffffffffffffffffffffffffffff16837f51db8e23b3f4479b162fd48823b8402895442b8f6cfd94f66239391881ec7b6f83346040516112229291906121f1565b60405180910390a35050611234611da3565b50565b61123f611ab8565b5f60025f8381526020019081526020015f209050806007015f9054906101000a900460ff166112a3576040517f08c379a000000000000000000000000000000000000000000000000000000000815260040161129a906123ae565b60405180910390fd5b80600601544210156112ea576040517f08c379a00000000000000000000000000000000000000000000000000000000081526004016112e190612ccf565b60405180910390fd5b5f73ffffffffffffffffffffffffffffffffffffffff16816005015f9054906101000a900473ffffffffffffffffffffffffffffffffffffffff1673ffffffffffffffffffffffffffffffffffffffff160361137b576040517f08c379a000000000000000000000000000000000000000000000000000000000815260040161137290612d37565b60405180910390fd5b7f000000000000000000000000000000000000000000000000000000000000000073ffffffffffffffffffffffffffffffffffffffff1663d7450a8d82600101546040518263ffffffff1660e01b81526004016113d891906120d0565b602060405180830381865afa1580156113f3573d5f5f3e3d5ffd5b505050506040513d601f19601f82011682018060405250810190611417919061245e565b15611457576040517f08c379a000000000000000000000000000000000000000000000000000000000815260040161144e906124d3565b60405180910390fd5b5f6114658260040154611535565b905061149a83836005015f9054906101000a900473ffffffffffffffffffffffffffffffffffffffff16846004015484611afc565b50506114a4611da3565b50565b6002602052805f5260405f205f91509050805f015f9054906101000a900473ffffffffffffffffffffffffffffffffffffffff1690806001015490806002015490806003015490806004015490806005015f9054906101000a900473ffffffffffffffffffffffffffffffffffffffff1690806006015490806007015f9054906101000a900460ff16905088565b5f5f61153f610d28565b905080670de0b6b3a7640000846115569190612af1565b6115609190612b5f565b915050919050565b5f60025f8381526020019081526020015f209050806007015f9054906101000a900460ff166115cc576040517f08c379a00000000000000000000000000000000000000000000000000000000081526004016115c3906123ae565b60405180910390fd5b3373ffffffffffffffffffffffffffffffffffffffff16815f015f9054906101000a900473ffffffffffffffffffffffffffffffffffffffff1673ffffffffffffffffffffffffffffffffffffffff161461165c576040517f08c379a000000000000000000000000000000000000000000000000000000000815260040161165390612d9f565b60405180910390fd5b5f816007015f6101000a81548160ff0219169083151502179055507f000000000000000000000000000000000000000000000000000000000000000073ffffffffffffffffffffffffffffffffffffffff166323b872dd30835f015f9054906101000a900473ffffffffffffffffffffffffffffffffffffffff1684600101546040518463ffffffff1660e01b81526004016116fa93929190612922565b5f604051808303815f87803b158015611711575f5ffd5b505af1158015611723573d5f5f3e3d5ffd5b505050505f73ffffffffffffffffffffffffffffffffffffffff16816005015f9054906101000a900473ffffffffffffffffffffffffffffffffffffffff1673ffffffffffffffffffffffffffffffffffffffff16146117f6575f61178b8260040154611535565b9050816005015f9054906101000a900473ffffffffffffffffffffffffffffffffffffffff1673ffffffffffffffffffffffffffffffffffffffff166108fc8290811502906040515f60405180830381858888f193505050501580156117f3573d5f5f3e3d5ffd5b50505b5050565b5f5f5f60025f8581526020019081526020015f209050806007015f9054906101000a900460ff16611860576040517f08c379a0000000000000000000000000000000000000000000000000000000008152600401611857906123ae565b60405180910390fd5b5f5f82600401541161187657816002015461187c565b81600401545b90508061188882611535565b935093505050915091565b61189b611efd565b60025f8381526020019081526020015f20604051806101000160405290815f82015f9054906101000a900473ffffffffffffffffffffffffffffffffffffffff1673ffffffffffffffffffffffffffffffffffffffff1673ffffffffffffffffffffffffffffffffffffffff16815260200160018201548152602001600282015481526020016003820154815260200160048201548152602001600582015f9054906101000a900473ffffffffffffffffffffffffffffffffffffffff1673ffffffffffffffffffffffffffffffffffffffff1673ffffffffffffffffffffffffffffffffffffffff16815260200160068201548152602001600782015f9054906101000a900460ff1615151515815250509050919050565b5f5f60025f8481526020019081526020015f209050806007015f9054906101000a900460ff16611a19576040517f08c379a0000000000000000000000000000000000000000000000000000000008152600401611a10906123ae565b60405180910390fd5b611a268160030154611535565b915050919050565b60035481565b611a3c611dac565b5f73ffffffffffffffffffffffffffffffffffffffff168173ffffffffffffffffffffffffffffffffffffffff1603611aac575f6040517f1e4fbdf7000000000000000000000000000000000000000000000000000000008152600401611aa39190612142565b60405180910390fd5b611ab581611e33565b50565b60025f5403611af3576040517f3ee5aeb500000000000000000000000000000000000000000000000000000000815260040160405180910390fd5b60025f81905550565b5f60025f8681526020019081526020015f2090505f816007015f6101000a81548160ff0219169083151502179055507f000000000000000000000000000000000000000000000000000000000000000073ffffffffffffffffffffffffffffffffffffffff166323b872dd308684600101546040518463ffffffff1660e01b8152600401611b8c93929190612922565b5f604051808303815f87803b158015611ba3575f5ffd5b505af1158015611bb5573d5f5f3e3d5ffd5b50505050805f015f9054906101000a900473ffffffffffffffffffffffffffffffffffffffff1673ffffffffffffffffffffffffffffffffffffffff166108fc8390811502906040515f60405180830381858888f19350505050158015611c1e573d5f5f3e3d5ffd5b505f73ffffffffffffffffffffffffffffffffffffffff16816005015f9054906101000a900473ffffffffffffffffffffffffffffffffffffffff1673ffffffffffffffffffffffffffffffffffffffff1614158015611ccd57508373ffffffffffffffffffffffffffffffffffffffff16816005015f9054906101000a900473ffffffffffffffffffffffffffffffffffffffff1673ffffffffffffffffffffffffffffffffffffffff1614155b15611d4b575f611ce08260040154611535565b9050816005015f9054906101000a900473ffffffffffffffffffffffffffffffffffffffff1673ffffffffffffffffffffffffffffffffffffffff166108fc8290811502906040515f60405180830381858888f19350505050158015611d48573d5f5f3e3d5ffd5b50505b8373ffffffffffffffffffffffffffffffffffffffff16857fb91c1d5733a11add12a3fe79d34b64a351a845d7b07eba88230fbbc3802c690e8585604051611d949291906121f1565b60405180910390a35050505050565b60015f81905550565b611db4611ef6565b73ffffffffffffffffffffffffffffffffffffffff16611dd2610e3d565b73ffffffffffffffffffffffffffffffffffffffff1614611e3157611df5611ef6565b6040517f118cdaa7000000000000000000000000000000000000000000000000000000008152600401611e289190612142565b60405180910390fd5b565b5f60015f9054906101000a900473ffffffffffffffffffffffffffffffffffffffff1690508160015f6101000a81548173ffffffffffffffffffffffffffffffffffffffff021916908373ffffffffffffffffffffffffffffffffffffffff1602179055508173ffffffffffffffffffffffffffffffffffffffff168173ffffffffffffffffffffffffffffffffffffffff167f8be0079c531659141344cd1fd0a4f28419497f9722a3daafe3b4186f6b6457e060405160405180910390a35050565b5f33905090565b6040518061010001604052805f73ffffffffffffffffffffffffffffffffffffffff1681526020015f81526020015f81526020015f81526020015f81526020015f73ffffffffffffffffffffffffffffffffffffffff1681526020015f81526020015f151581525090565b5f5ffd5b5f819050919050565b611f7e81611f6c565b8114611f88575f5ffd5b50565b5f81359050611f9981611f75565b92915050565b5f60208284031215611fb457611fb3611f68565b5b5f611fc184828501611f8b565b91505092915050565b5f73ffffffffffffffffffffffffffffffffffffffff82169050919050565b5f819050919050565b5f61200c61200761200284611fca565b611fe9565b611fca565b9050919050565b5f61201d82611ff2565b9050919050565b5f61202e82612013565b9050919050565b61203e81612024565b82525050565b5f6020820190506120575f830184612035565b92915050565b5f5f5f5f6080858703121561207557612074611f68565b5b5f61208287828801611f8b565b945050602061209387828801611f8b565b93505060406120a487828801611f8b565b92505060606120b587828801611f8b565b91505092959194509250565b6120ca81611f6c565b82525050565b5f6020820190506120e35f8301846120c1565b92915050565b5f6120f382612013565b9050919050565b612103816120e9565b82525050565b5f60208201905061211c5f8301846120fa565b92915050565b5f61212c82611fca565b9050919050565b61213c81612122565b82525050565b5f6020820190506121555f830184612133565b92915050565b5f8115159050919050565b61216f8161215b565b82525050565b5f610100820190506121895f83018b612133565b612196602083018a6120c1565b6121a360408301896120c1565b6121b060608301886120c1565b6121bd60808301876120c1565b6121ca60a0830186612133565b6121d760c08301856120c1565b6121e460e0830184612166565b9998505050505050505050565b5f6040820190506122045f8301856120c1565b61221160208301846120c1565b9392505050565b61222181612122565b82525050565b61223081611f6c565b82525050565b61223f8161215b565b82525050565b61010082015f82015161225a5f850182612218565b50602082015161226d6020850182612227565b5060408201516122806040850182612227565b5060608201516122936060850182612227565b5060808201516122a66080850182612227565b5060a08201516122b960a0850182612218565b5060c08201516122cc60c0850182612227565b5060e08201516122df60e0850182612236565b50505050565b5f610100820190506122f95f830184612245565b92915050565b61230881612122565b8114612312575f5ffd5b50565b5f81359050612323816122ff565b92915050565b5f6020828403121561233e5761233d611f68565b5b5f61234b84828501612315565b91505092915050565b5f82825260208201905092915050565b7f53616c65206e6f742061637469766500000000000000000000000000000000005f82015250565b5f612398600f83612354565b91506123a382612364565b602082019050919050565b5f6020820190508181035f8301526123c58161238c565b9050919050565b7f53616c652068617320656e6465640000000000000000000000000000000000005f82015250565b5f612400600e83612354565b915061240b826123cc565b602082019050919050565b5f6020820190508181035f83015261242d816123f4565b9050919050565b61243d8161215b565b8114612447575f5ffd5b50565b5f8151905061245881612434565b92915050565b5f6020828403121561247357612472611f68565b5b5f6124808482850161244a565b91505092915050565b7f4e465420686173206265656e20636f6e73756d656400000000000000000000005f82015250565b5f6124bd601583612354565b91506124c882612489565b602082019050919050565b5f6020820190508181035f8301526124ea816124b1565b9050919050565b7f496e73756666696369656e74207061796d656e740000000000000000000000005f82015250565b5f612525601483612354565b9150612530826124f1565b602082019050919050565b5f6020820190508181035f83015261255281612519565b9050919050565b7f4c697374207072696365206d7573742062652067726561746572207468616e205f8201527f3000000000000000000000000000000000000000000000000000000000000000602082015250565b5f6125b3602183612354565b91506125be82612559565b604082019050919050565b5f6020820190508181035f8301526125e0816125a7565b9050919050565b7f427579206e6f77207072696365206d757374206265203e3d206c6973742070725f8201527f6963650000000000000000000000000000000000000000000000000000000000602082015250565b5f612641602383612354565b915061264c826125e7565b604082019050919050565b5f6020820190508181035f83015261266e81612635565b9050919050565b7f4475726174696f6e206d7573742062652067726561746572207468616e2030005f82015250565b5f6126a9601f83612354565b91506126b482612675565b602082019050919050565b5f6020820190508181035f8301526126d68161269d565b9050919050565b7f43616e6e6f74206c69737420636f6e73756d6564204e465400000000000000005f82015250565b5f612711601883612354565b915061271c826126dd565b602082019050919050565b5f6020820190508181035f83015261273e81612705565b9050919050565b5f81519050612753816122ff565b92915050565b5f6020828403121561276e5761276d611f68565b5b5f61277b84828501612745565b91505092915050565b7f4e6f7420746865206f776e6572206f6620746865204e465400000000000000005f82015250565b5f6127b8601883612354565b91506127c382612784565b602082019050919050565b5f6020820190508181035f8301526127e5816127ac565b9050919050565b5f6040820190506127ff5f830185612133565b61280c6020830184612133565b9392505050565b7f4d61726b6574706c616365206e6f7420617070726f76656400000000000000005f82015250565b5f612847601883612354565b915061285282612813565b602082019050919050565b5f6020820190508181035f8301526128748161283b565b9050919050565b7f4e487b71000000000000000000000000000000000000000000000000000000005f52601160045260245ffd5b5f6128b282611f6c565b91507fffffffffffffffffffffffffffffffffffffffffffffffffffffffffffffffff82036128e4576128e361287b565b5b600182019050919050565b5f6128f982611f6c565b915061290483611f6c565b925082820190508082111561291c5761291b61287b565b5b92915050565b5f6060820190506129355f830186612133565b6129426020830185612133565b61294f60408301846120c1565b949350505050565b5f60608201905061296a5f8301866120c1565b61297760208301856120c1565b61298460408301846120c1565b949350505050565b5f69ffffffffffffffffffff82169050919050565b6129aa8161298c565b81146129b4575f5ffd5b50565b5f815190506129c5816129a1565b92915050565b5f819050919050565b6129dd816129cb565b81146129e7575f5ffd5b50565b5f815190506129f8816129d4565b92915050565b5f81519050612a0c81611f75565b92915050565b5f5f5f5f5f60a08688031215612a2b57612a2a611f68565b5b5f612a38888289016129b7565b9550506020612a49888289016129ea565b9450506040612a5a888289016129fe565b9350506060612a6b888289016129fe565b9250506080612a7c888289016129b7565b9150509295509295909350565b7f496e76616c6964207072696365206665656400000000000000000000000000005f82015250565b5f612abd601283612354565b9150612ac882612a89565b602082019050919050565b5f6020820190508181035f830152612aea81612ab1565b9050919050565b5f612afb82611f6c565b9150612b0683611f6c565b9250828202612b1481611f6c565b91508282048414831517612b2b57612b2a61287b565b5b5092915050565b7f4e487b71000000000000000000000000000000000000000000000000000000005f52601260045260245ffd5b5f612b6982611f6c565b9150612b7483611f6c565b925082612b8457612b83612b32565b5b828204905092915050565b7f4269642062656c6f77206c6973742070726963650000000000000000000000005f82015250565b5f612bc3601483612354565b9150612bce82612b8f565b602082019050919050565b5f6020820190508181035f830152612bf081612bb7565b9050919050565b7f426964206d75737420626520686967686572207468616e2063757272656e74205f8201527f6269640000000000000000000000000000000000000000000000000000000000602082015250565b5f612c51602383612354565b9150612c5c82612bf7565b604082019050919050565b5f6020820190508181035f830152612c7e81612c45565b9050919050565b7f53616c6520686173206e6f7420656e64656400000000000000000000000000005f82015250565b5f612cb9601283612354565b9150612cc482612c85565b602082019050919050565b5f6020820190508181035f830152612ce681612cad565b9050919050565b7f4e6f206269647320706c616365640000000000000000000000000000000000005f82015250565b5f612d21600e83612354565b9150612d2c82612ced565b602082019050919050565b5f6020820190508181035f830152612d4e81612d15565b9050919050565b7f4e6f74207468652073656c6c65720000000000000000000000000000000000005f82015250565b5f612d89600e83612354565b9150612d9482612d55565b602082019050919050565b5f6020820190508181035f830152612db681612d7d565b905091905056fea2646970667358221220a575dfe0764a5addcee4ced1da73cddaae9bba51ec194ab63f1a9e1dad498dd964736f6c634300081e0033","linkReferences":{}},"methodIdentifiers":{"baseNFT()":"687fff22","buyNow(uint256)":"08a0f32f","cancelSale(uint256)":"bd94b005","ethToUsd(uint256)":"946d1480","ethUsdPriceFeed()":"42f6fb29","finalizeSale(uint256)":"aa929380","getCurrentPrice(uint256)":"c55d0f56","getEthPrice()":"67c9b017","getRequiredEthForBuyNow(uint256)":"dd4af9c5","getSale(uint256)":"d8f6d596","listNFT(uint256,uint256,uint256,uint256)":"45432dbb","nextSaleId()":"deb077b9","owner()":"8da5cb5b","placeBid(uint256)":"9979ef45","renounceOwnership()":"715018a6","sales(uint256)":"b5f522f7","transferOwnership(address)":"f2fde38b","usdToEth(uint256)":"bcecf667"},"id":1}