{
  "_format": "hh-sol-artifact-1",
  "contractName": "BaseNFT",
  "sourceName": "contracts/BaseNFT.sol",
  "abi": [
    {
      "inputs": [
        {
          "internalType": "address",
          "name": "initialOwner",
          "type": "address"
        }
      ],
      "stateMutability": "nonpayable",
      "type": "constructor"
    },
    {
      "inputs": [
        {
          "internalType": "address",
          "name": "sender",
          "type": "address"
        },
        {
          "internalType": "uint256",
          "name": "tokenId",
          "type": "uint256"
        },
        {
          "internalType": "address",
          "name": "owner",
          "type": "address"
        }
      ],
      "name": "ERC721IncorrectOwner",
      "type": "error"
    },
    {
      "inputs": [
        {
          "internalType": "address",
          "name": "operator",
          "type": "address"
        },
        {
          "internalType": "uint256",
          "name": "tokenId",
          "type": "uint256"
        }
      ],
      "name": "ERC721InsufficientApproval",
      "type": "error"
    },
    {
      "inputs": [
        {
          "internalType": "address",
          "name": "approver",
          "type": "address"
        }
      ],
      "name": "ERC721InvalidApprover",
      "type": "error"
    },
    {
      "inputs": [
        {
          "internalType": "address",
          "name": "operator",
          "type": "address"
        }
      ],
      "name": "ERC721InvalidOperator",
      "type": "error"
    },
    {
      "inputs": [
        {
          "internalType": "address",
          "name": "owner",
          "type": "address"
        }
      ],
      "name": "ERC721InvalidOwner",
      "type": "error"
    },
    {
      "inputs": [
        {
          "internalType": "address",
          "name": "receiver",
          "type": "address"
        }
      ],
      "name": "ERC721InvalidReceiver",
      "type": "error"
    },
    {
      "inputs": [
        {
          "internalType": "address",
          "name": "sender",
          "type": "address"
        }
      ],
      "name": "ERC721InvalidSender",
      "type": "error"
    },
    {
      "inputs": [
        {
          "internalType": "uint256",
          "name": "tokenId",
          "type": "uint256"
        }
      ],
      "name": "ERC721NonexistentToken",
      "type": "error"
    },
    {
      "inputs": [
        {
          "internalType": "address",
          "name": "owner",
          "type": "address"
        }
      ],
      "name": "OwnableInvalidOwner",
      "type": "error"
    },
    {
      "inputs": [
        {
          "internalType": "address",
          "name": "account",
          "type": "address"
        }
      ],
      "name": "OwnableUnauthorizedAccount",
      "type": "error"
    },
    {
      "inputs": [],
      "name": "ReentrancyGuardReentrantCall",
      "type": "error"
    },
    {
      "anonymous": false,
      "inputs": [
        {
          "indexed": true,
          "internalType": "address",
          "name": "owner",
          "type": "address"
        },
        {
          "indexed": true,
          "internalType": "address",
          "name": "approved",
          "type": "address"
        },
        {
          "indexed": true,
          "internalType": "uint256",
          "name": "tokenId",
          "type": "uint256"
        }
      ],
      "name": "Approval",
      "type": "event"
    },
    {
      "anonymous": false,
      "inputs": [
        {
          "indexed": true,
          "internalType": "address",
          "name": "owner",
          "type": "address"
        },
        {
          "indexed": true,
          "internalType": "address",
          "name": "operator",
          "type": "address"
        },
        {
          "indexed": false,
          "internalType": "bool",
          "name": "approved",
          "type": "bool"
        }
      ],
      "name": "ApprovalForAll",
      "type": "event"
    },
    {
      "anonymous": false,
      "inputs": [
        {
          "indexed": false,
          "internalType": "uint256",
          "name": "_fromTokenId",
          "type": "uint256"
        },
        {
          "indexed": false,
          "internalType": "uint256",
          "name": "_toTokenId",
          "type": "uint256"
        }
      ],
      "name": "BatchMetadataUpdate",
      "type": "event"
    },
    {
      "anonymous": false,
      "inputs": [
        {
          "indexed": false,
          "internalType": "uint256",
          "name": "_tokenId",
          "type": "uint256"
        }
      ],
      "name": "MetadataUpdate",
      "type": "event"
    },
    {
      "anonymous": false,
      "inputs": [
        {
          "indexed": true,
          "internalType": "uint256",
          "name": "tokenId",
          "type": "uint256"
        },
        {
          "indexed": true,
          "internalType": "address",
          "name": "creator",
          "type": "address"
        },
        {
          "indexed": true,
          "internalType": "address",
          "name": "owner",
          "type": "address"
        },
        {
          "indexed": false,
          "internalType": "string",
          "name": "tokenURI",
          "type": "string"
        },
        {
          "indexed": false,
          "internalType": "uint256",
          "name": "royalty",
          "type": "uint256"
        }
      ],
      "name": "NFTMinted",
      "type": "event"
    },
    {
      "anonymous": false,
      "inputs": [
        {
          "indexed": true,
          "internalType": "address",
          "name": "previousOwner",
          "type": "address"
        },
        {
          "indexed": true,
          "internalType": "address",
          "name": "newOwner",
          "type": "address"
        }
      ],
      "name": "OwnershipTransferred",
      "type": "event"
    },
    {
      "anonymous": false,
      "inputs": [
        {
          "indexed": true,
          "internalType": "address",
          "name": "from",
          "type": "address"
        },
        {
          "indexed": true,
          "internalType": "address",
          "name": "to",
          "type": "address"
        },
        {
          "indexed": true,
          "internalType": "uint256",
          "name": "tokenId",
          "type": "uint256"
        }
      ],
      "name": "Transfer",
      "type": "event"
    },
    {
      "inputs": [
        {
          "internalType": "address",
          "name": "to",
          "type": "address"
        },
        {
          "internalType": "uint256",
          "name": "tokenId",
          "type": "uint256"
        }
      ],
      "name": "approve",
      "outputs": [],
      "stateMutability": "nonpayable",
      "type": "function"
    },
    {
      "inputs": [
        {
          "internalType": "address",
          "name": "owner",
          "type": "address"
        }
      ],
      "name": "balanceOf",
      "outputs": [
        {
          "internalType": "uint256",
          "name": "",
          "type": "uint256"
        }
      ],
      "stateMutability": "view",
      "type": "function"
    },
    {
      "inputs": [
        {
          "internalType": "uint256",
          "name": "",
          "type": "uint256"
        }
      ],
      "name": "creators",
      "outputs": [
        {
          "internalType": "address",
          "name": "",
          "type": "address"
        }
      ],
      "stateMutability": "view",
      "type": "function"
    },
    {
      "inputs": [
        {
          "internalType": "uint256",
          "name": "tokenId",
          "type": "uint256"
        }
      ],
      "name": "getApproved",
      "outputs": [
        {
          "internalType": "address",
          "name": "",
          "type": "address"
        }
      ],
      "stateMutability": "view",
      "type": "function"
    },
    {
      "inputs": [
        {
          "internalType": "uint256",
          "name": "tokenId",
          "type": "uint256"
        }
      ],
      "name": "getCreator",
      "outputs": [
        {
          "internalType": "address",
          "name": "",
          "type": "address"
        }
      ],
      "stateMutability": "view",
      "type": "function"
    },
    {
      "inputs": [
        {
          "internalType": "uint256",
          "name": "tokenId",
          "type": "uint256"
        }
      ],
      "name": "getRoyalty",
      "outputs": [
        {
          "internalType": "uint256",
          "name": "",
          "type": "uint256"
        }
      ],
      "stateMutability": "view",
      "type": "function"
    },
    {
      "inputs": [
        {
          "internalType": "address",
          "name": "owner",
          "type": "address"
        },
        {
          "internalType": "address",
          "name": "operator",
          "type": "address"
        }
      ],
      "name": "isApprovedForAll",
      "outputs": [
        {
          "internalType": "bool",
          "name": "",
          "type": "bool"
        }
      ],
      "stateMutability": "view",
      "type": "function"
    },
    {
      "inputs": [
        {
          "internalType": "address",
          "name": "to",
          "type": "address"
        },
        {
          "internalType": "string",
          "name": "tokenURI",
          "type": "string"
        },
        {
          "internalType": "uint256",
          "name": "royaltyBasisPoints",
          "type": "uint256"
        }
      ],
      "name": "mint",
      "outputs": [
        {
          "internalType": "uint256",
          "name": "",
          "type": "uint256"
        }
      ],
      "stateMutability": "nonpayable",
      "type": "function"
    },
    {
      "inputs": [],
      "name": "name",
      "outputs": [
        {
          "internalType": "string",
          "name": "",
          "type": "string"
        }
      ],
      "stateMutability": "view",
      "type": "function"
    },
    {
      "inputs": [],
      "name": "owner",
      "outputs": [
        {
          "internalType": "address",
          "name": "",
          "type": "address"
        }
      ],
      "stateMutability": "view",
      "type": "function"
    },
    {
      "inputs": [
        {
          "internalType": "uint256",
          "name": "tokenId",
          "type": "uint256"
        }
      ],
      "name": "ownerOf",
      "outputs": [
        {
          "internalType": "address",
          "name": "",
          "type": "address"
        }
      ],
      "stateMutability": "view",
      "type": "function"
    },
    {
      "inputs": [],
      "name": "renounceOwnership",
      "outputs": [],
      "stateMutability": "nonpayable",
      "type": "function"
    },
    {
      "inputs": [
        {
          "internalType": "uint256",
          "name": "",
          "type": "uint256"
        }
      ],
      "name": "royalties",
      "outputs": [
        {
          "internalType": "uint256",
          "name": "",
          "type": "uint256"
        }
      ],
      "stateMutability": "view",
      "type": "function"
    },
    {
      "inputs": [
        {
          "internalType": "address",
          "name": "from",
          "type": "address"
        },
        {
          "internalType": "address",
          "name": "to",
          "type": "address"
        },
        {
          "internalType": "uint256",
          "name": "tokenId",
          "type": "uint256"
        }
      ],
      "name": "safeTransferFrom",
      "outputs": [],
      "stateMutability": "nonpayable",
      "type": "function"
    },
    {
      "inputs": [
        {
          "internalType": "address",
          "name": "from",
          "type": "address"
        },
        {
          "internalType": "address",
          "name": "to",
          "type": "address"
        },
        {
          "internalType": "uint256",
          "name": "tokenId",
          "type": "uint256"
        },
        {
          "internalType": "bytes",
          "name": "data",
          "type": "bytes"
        }
      ],
      "name": "safeTransferFrom",
      "outputs": [],
      "stateMutability": "nonpayable",
      "type": "function"
    },
    {
      "inputs": [
        {
          "internalType": "address",
          "name": "operator",
          "type": "address"
        },
        {
          "internalType": "bool",
          "name": "approved",
          "type": "bool"
        }
      ],
      "name": "setApprovalForAll",
      "outputs": [],
      "stateMutability": "nonpayable",
      "type": "function"
    },
    {
      "inputs": [
        {
          "internalType": "bytes4",
          "name": "interfaceId",
          "type": "bytes4"
        }
      ],
      "name": "supportsInterface",
      "outputs": [
        {
          "internalType": "bool",
          "name": "",
          "type": "bool"
        }
      ],
      "stateMutability": "view",
      "type": "function"
    },
    {
      "inputs": [],
      "name": "symbol",
      "outputs": [
        {
          "internalType": "string",
          "name": "",
          "type": "string"
        }
      ],
      "stateMutability": "view",
      "type": "function"
    },
    {
      "inputs": [
        {
          "internalType": "uint256",
          "name": "tokenId",
          "type": "uint256"
        }
      ],
      "name": "tokenURI",
      "outputs": [
        {
          "internalType": "string",
          "name": "",
          "type": "string"
        }
      ],
      "stateMutability": "view",
      "type": "function"
    },
    {
      "inputs": [],
      "name": "totalSupply",
      "outputs": [
        {
          "internalType": "uint256",
          "name": "",
          "type": "uint256"
        }
      ],
      "stateMutability": "view",
      "type": "function"
    },
    {
      "inputs": [
        {
          "internalType": "address",
          "name": "from",
          "type": "address"
        },
        {
          "internalType": "address",
          "name": "to",
          "type": "address"
        },
        {
          "internalType": "uint256",
          "name": "tokenId",
          "type": "uint256"
        }
      ],
      "name": "transferFrom",
      "outputs": [],
      "stateMutability": "nonpayable",
      "type": "function"
    },
    {
      "inputs": [
        {
          "internalType": "address",
          "name": "newOwner",
          "type": "address"
        }
      ],
      "name": "transferOwnership",
      "outputs": [],
      "stateMutability": "nonpayable",
      "type": "function"
    }
  ],
  "bytecode": "0x60806040523480156200001157600080fd5b506040516200196438038062001964833981016040819052620000349162000149565b806040518060400160405280601481526020017f42617365204e4654204d61726b6574706c616365000000000000000000000000815250604051806040016040528060048152602001631093919560e21b815250816000908162000099919062000220565b506001620000a8828262000220565b5050506001600160a01b038116620000da57604051631e4fbdf760e01b81526000600482015260240160405180910390fd5b620000e581620000f7565b505060016008819055600955620002ec565b600780546001600160a01b038381166001600160a01b0319831681179093556040519116919082907f8be0079c531659141344cd1fd0a4f28419497f9722a3daafe3b4186f6b6457e090600090a35050565b6000602082840312156200015c57600080fd5b81516001600160a01b03811681146200017457600080fd5b9392505050565b634e487b7160e01b600052604160045260246000fd5b600181811c90821680620001a657607f821691505b602082108103620001c757634e487b7160e01b600052602260045260246000fd5b50919050565b601f8211156200021b57600081815260208120601f850160051c81016020861015620001f65750805b601f850160051c820191505b81811015620002175782815560010162000202565b5050505b505050565b81516001600160401b038111156200023c576200023c6200017b565b62000254816200024d845462000191565b84620001cd565b602080601f8311600181146200028c5760008415620002735750858301515b600019600386901b1c1916600185901b17855562000217565b600085815260208120601f198616915b82811015620002bd578886015182559484019460019091019084016200029c565b5085821015620002dc5787850151600019600388901b60f8161c191681555b5050505050600190811b01905550565b61166880620002fc6000396000f3fe608060405234801561001057600080fd5b50600436106101425760003560e01c80637f77f574116100b8578063ba7aef431161007c578063ba7aef43146102ad578063c87b56dd146102c0578063cd53d08e146102d3578063d48e638a146102fc578063e985e9c514610325578063f2fde38b1461033857600080fd5b80637f77f5741461024e5780638da5cb5b1461026e57806395d89b411461027f578063a22cb46514610287578063b88d4fde1461029a57600080fd5b80631af9cf491161010a5780631af9cf49146101da57806323b872dd146101fa57806342842e0e1461020d5780636352211e1461022057806370a0823114610233578063715018a61461024657600080fd5b806301ffc9a71461014757806306fdde031461016f578063081812fc14610184578063095ea7b3146101af57806318160ddd146101c4575b600080fd5b61015a6101553660046110ed565b61034b565b60405190151581526020015b60405180910390f35b61017761035c565b604051610166919061115a565b61019761019236600461116d565b6103ee565b6040516001600160a01b039091168152602001610166565b6101c26101bd3660046111a2565b610417565b005b6101cc610426565b604051908152602001610166565b6101cc6101e836600461116d565b6000908152600b602052604090205490565b6101c26102083660046111cc565b61043c565b6101c261021b3660046111cc565b6104cc565b61019761022e36600461116d565b6104ec565b6101cc610241366004611208565b6104f7565b6101c261053f565b6101cc61025c36600461116d565b600b6020526000908152604090205481565b6007546001600160a01b0316610197565b610177610553565b6101c2610295366004611223565b610562565b6101c26102a83660046112eb565b61056d565b6101cc6102bb366004611367565b610585565b6101776102ce36600461116d565b610695565b6101976102e136600461116d565b600a602052600090815260409020546001600160a01b031681565b61019761030a36600461116d565b6000908152600a60205260409020546001600160a01b031690565b61015a6103333660046113d2565b6106a0565b6101c2610346366004611208565b6106ce565b60006103568261070c565b92915050565b60606000805461036b90611405565b80601f016020809104026020016040519081016040528092919081815260200182805461039790611405565b80156103e45780601f106103b9576101008083540402835291602001916103e4565b820191906000526020600020905b8154815290600101906020018083116103c757829003601f168201915b5050505050905090565b60006103f982610731565b506000828152600460205260409020546001600160a01b0316610356565b61042282823361076a565b5050565b600060016009546104379190611455565b905090565b6001600160a01b03821661046b57604051633250574960e11b8152600060048201526024015b60405180910390fd5b6000610478838333610777565b9050836001600160a01b0316816001600160a01b0316146104c6576040516364283d7b60e01b81526001600160a01b0380861660048301526024820184905282166044820152606401610462565b50505050565b6104e78383836040518060200160405280600081525061056d565b505050565b600061035682610731565b60006001600160a01b038216610523576040516322718ad960e21b815260006004820152602401610462565b506001600160a01b031660009081526003602052604090205490565b610547610870565b610551600061089d565b565b60606001805461036b90611405565b6104223383836108ef565b61057884848461043c565b6104c6338585858561098e565b600061058f610ab9565b6103e88211156105e15760405162461bcd60e51b815260206004820152601960248201527f526f79616c74792063616e6e6f742065786365656420313025000000000000006044820152606401610462565b6009805490819060006105f383611468565b91905055506106028582610ae3565b61060c8185610afd565b6000818152600a6020908152604080832080546001600160a01b0319166001600160a01b038a16908117909155600b909252918290208590559051819083907f675c63f6204de0c2d5ef96e72ce2941a35c8334d5e8beca724cbd0acbde846479061067a9089908990611481565b60405180910390a4905061068e6001600855565b9392505050565b606061035682610b4d565b6001600160a01b03918216600090815260056020908152604080832093909416825291909152205460ff1690565b6106d6610870565b6001600160a01b03811661070057604051631e4fbdf760e01b815260006004820152602401610462565b6107098161089d565b50565b60006001600160e01b03198216632483248360e11b1480610356575061035682610c5e565b6000818152600260205260408120546001600160a01b03168061035657604051637e27328960e01b815260048101849052602401610462565b6104e78383836001610cae565b6000828152600260205260408120546001600160a01b03908116908316156107a4576107a4818486610db4565b6001600160a01b038116156107e2576107c1600085600080610cae565b6001600160a01b038116600090815260036020526040902080546000190190555b6001600160a01b03851615610811576001600160a01b0385166000908152600360205260409020805460010190555b60008481526002602052604080822080546001600160a01b0319166001600160a01b0389811691821790925591518793918516917fddf252ad1be2c89b69c2b068fc378daa952ba7f163c4a11628f55a4df523b3ef91a4949350505050565b6007546001600160a01b031633146105515760405163118cdaa760e01b8152336004820152602401610462565b600780546001600160a01b038381166001600160a01b0319831681179093556040519116919082907f8be0079c531659141344cd1fd0a4f28419497f9722a3daafe3b4186f6b6457e090600090a35050565b6001600160a01b03821661092157604051630b61174360e31b81526001600160a01b0383166004820152602401610462565b6001600160a01b03838116600081815260056020908152604080832094871680845294825291829020805460ff191686151590811790915591519182527f17307eab39ab6107e8899845ad3d59bd9653f200f220920489ca2b5937696c31910160405180910390a3505050565b6001600160a01b0383163b15610ab257604051630a85bd0160e11b81526001600160a01b0384169063150b7a02906109d09088908890879087906004016114a3565b6020604051808303816000875af1925050508015610a0b575060408051601f3d908101601f19168201909252610a08918101906114e0565b60015b610a74573d808015610a39576040519150601f19603f3d011682016040523d82523d6000602084013e610a3e565b606091505b508051600003610a6c57604051633250574960e11b81526001600160a01b0385166004820152602401610462565b805160208201fd5b6001600160e01b03198116630a85bd0160e11b14610ab057604051633250574960e11b81526001600160a01b0385166004820152602401610462565b505b5050505050565b600260085403610adc57604051633ee5aeb560e01b815260040160405180910390fd5b6002600855565b610422828260405180602001604052806000815250610e18565b6000828152600660205260409020610b158282611543565b506040518281527ff8e1a15aba9398e019f0b49df1a4fde98ee17ae345cb5f6b5e2c27f5033e8ce79060200160405180910390a15050565b6060610b5882610731565b5060008281526006602052604081208054610b7290611405565b80601f0160208091040260200160405190810160405280929190818152602001828054610b9e90611405565b8015610beb5780601f10610bc057610100808354040283529160200191610beb565b820191906000526020600020905b815481529060010190602001808311610bce57829003601f168201915b505050505090506000610c0960408051602081019091526000815290565b90508051600003610c1b575092915050565b815115610c4d578082604051602001610c35929190611603565b60405160208183030381529060405292505050919050565b610c5684610e30565b949350505050565b60006001600160e01b031982166380ac58cd60e01b1480610c8f57506001600160e01b03198216635b5e139f60e01b145b8061035657506301ffc9a760e01b6001600160e01b0319831614610356565b8080610cc257506001600160a01b03821615155b15610d84576000610cd284610731565b90506001600160a01b03831615801590610cfe5750826001600160a01b0316816001600160a01b031614155b8015610d115750610d0f81846106a0565b155b15610d3a5760405163a9fbf51f60e01b81526001600160a01b0384166004820152602401610462565b8115610d825783856001600160a01b0316826001600160a01b03167f8c5be1e5ebec7d5bd14f71427d1e84f3dd0314c0f7b2291e5b200ac8c7c3b92560405160405180910390a45b505b5050600090815260046020526040902080546001600160a01b0319166001600160a01b0392909216919091179055565b610dbf838383610ea4565b6104e7576001600160a01b038316610ded57604051637e27328960e01b815260048101829052602401610462565b60405163177e802f60e01b81526001600160a01b038316600482015260248101829052604401610462565b610e228383610f07565b6104e733600085858561098e565b6060610e3b82610731565b506000610e5360408051602081019091526000815290565b90506000815111610e73576040518060200160405280600081525061068e565b80610e7d84610f6c565b604051602001610e8e929190611603565b6040516020818303038152906040529392505050565b60006001600160a01b03831615801590610c565750826001600160a01b0316846001600160a01b03161480610ede5750610ede84846106a0565b80610c565750506000908152600460205260409020546001600160a01b03908116911614919050565b6001600160a01b038216610f3157604051633250574960e11b815260006004820152602401610462565b6000610f3f83836000610777565b90506001600160a01b038116156104e7576040516339e3563760e11b815260006004820152602401610462565b60606000610f7983610fff565b600101905060008167ffffffffffffffff811115610f9957610f9961125f565b6040519080825280601f01601f191660200182016040528015610fc3576020820181803683370190505b5090508181016020015b600019016f181899199a1a9b1b9c1cb0b131b232b360811b600a86061a8153600a8504945084610fcd57509392505050565b60008072184f03e93ff9f4daa797ed6e38ed64bf6a1f0160401b831061103e5772184f03e93ff9f4daa797ed6e38ed64bf6a1f0160401b830492506040015b6d04ee2d6d415b85acef8100000000831061106a576d04ee2d6d415b85acef8100000000830492506020015b662386f26fc10000831061108857662386f26fc10000830492506010015b6305f5e10083106110a0576305f5e100830492506008015b61271083106110b457612710830492506004015b606483106110c6576064830492506002015b600a83106103565760010192915050565b6001600160e01b03198116811461070957600080fd5b6000602082840312156110ff57600080fd5b813561068e816110d7565b60005b8381101561112557818101518382015260200161110d565b50506000910152565b6000815180845261114681602086016020860161110a565b601f01601f19169290920160200192915050565b60208152600061068e602083018461112e565b60006020828403121561117f57600080fd5b5035919050565b80356001600160a01b038116811461119d57600080fd5b919050565b600080604083850312156111b557600080fd5b6111be83611186565b946020939093013593505050565b6000806000606084860312156111e157600080fd5b6111ea84611186565b92506111f860208501611186565b9150604084013590509250925092565b60006020828403121561121a57600080fd5b61068e82611186565b6000806040838503121561123657600080fd5b61123f83611186565b91506020830135801515811461125457600080fd5b809150509250929050565b634e487b7160e01b600052604160045260246000fd5b600067ffffffffffffffff808411156112905761129061125f565b604051601f8501601f19908116603f011681019082821181831017156112b8576112b861125f565b816040528093508581528686860111156112d157600080fd5b858560208301376000602087830101525050509392505050565b6000806000806080858703121561130157600080fd5b61130a85611186565b935061131860208601611186565b925060408501359150606085013567ffffffffffffffff81111561133b57600080fd5b8501601f8101871361134c57600080fd5b61135b87823560208401611275565b91505092959194509250565b60008060006060848603121561137c57600080fd5b61138584611186565b9250602084013567ffffffffffffffff8111156113a157600080fd5b8401601f810186136113b257600080fd5b6113c186823560208401611275565b925050604084013590509250925092565b600080604083850312156113e557600080fd5b6113ee83611186565b91506113fc60208401611186565b90509250929050565b600181811c9082168061141957607f821691505b60208210810361143957634e487b7160e01b600052602260045260246000fd5b50919050565b634e487b7160e01b600052601160045260246000fd5b818103818111156103565761035661143f565b60006001820161147a5761147a61143f565b5060010190565b604081526000611494604083018561112e565b90508260208301529392505050565b6001600160a01b03858116825284166020820152604081018390526080606082018190526000906114d69083018461112e565b9695505050505050565b6000602082840312156114f257600080fd5b815161068e816110d7565b601f8211156104e757600081815260208120601f850160051c810160208610156115245750805b601f850160051c820191505b81811015610ab057828155600101611530565b815167ffffffffffffffff81111561155d5761155d61125f565b6115718161156b8454611405565b846114fd565b602080601f8311600181146115a6576000841561158e5750858301515b600019600386901b1c1916600185901b178555610ab0565b600085815260208120601f198616915b828110156115d5578886015182559484019460019091019084016115b6565b50858210156115f35787850151600019600388901b60f8161c191681555b5050505050600190811b01905550565b6000835161161581846020880161110a565b83519083019061162981836020880161110a565b0194935050505056fea2646970667358221220685eb816d307e139e5c5c3253872bf0e8ff759df00c5507c251d1664b14f1f2264736f6c63430008140033",
  "linkReferences": {},
  "deployedLinkReferences": {}
}