{
  "_format": "hh-sol-artifact-1",
  "contractName": "Marketplace",
  "sourceName": "contracts/Marketplace.sol",
  "abi": [
    {
      "inputs": [
        {
          "internalType": "address",
          "name": "initialOwner",
          "type": "address"
        }
      ],
      "stateMutability": "nonpayable",
      "type": "constructor"
    },
    {
      "inputs": [
        {
          "internalType": "address",
          "name": "owner",
          "type": "address"
        }
      ],
      "name": "OwnableInvalidOwner",
      "type": "error"
    },
    {
      "inputs": [
        {
          "internalType": "address",
          "name": "account",
          "type": "address"
        }
      ],
      "name": "OwnableUnauthorizedAccount",
      "type": "error"
    },
    {
      "inputs": [],
      "name": "ReentrancyGuardReentrantCall",
      "type": "error"
    },
    {
      "anonymous": false,
      "inputs": [
        {
          "indexed": true,
          "internalType": "uint256",
          "name": "saleId",
          "type": "uint256"
        },
        {
          "indexed": true,
          "internalType": "address",
          "name": "bidder",
          "type": "address"
        },
        {
          "indexed": false,
          "internalType": "uint256",
          "name": "amount",
          "type": "uint256"
        }
      ],
      "name": "BidPlaced",
      "type": "event"
    },
    {
      "anonymous": false,
      "inputs": [
        {
          "indexed": true,
          "internalType": "address",
          "name": "previousOwner",
          "type": "address"
        },
        {
          "indexed": true,
          "internalType": "address",
          "name": "newOwner",
          "type": "address"
        }
      ],
      "name": "OwnershipTransferred",
      "type": "event"
    },
    {
      "anonymous": false,
      "inputs": [
        {
          "indexed": true,
          "internalType": "uint256",
          "name": "saleId",
          "type": "uint256"
        }
      ],
      "name": "SaleCancelled",
      "type": "event"
    },
    {
      "anonymous": false,
      "inputs": [
        {
          "indexed": true,
          "internalType": "uint256",
          "name": "saleId",
          "type": "uint256"
        },
        {
          "indexed": true,
          "internalType": "address",
          "name": "buyer",
          "type": "address"
        },
        {
          "indexed": false,
          "internalType": "uint256",
          "name": "finalPrice",
          "type": "uint256"
        }
      ],
      "name": "SaleCompleted",
      "type": "event"
    },
    {
      "anonymous": false,
      "inputs": [
        {
          "indexed": true,
          "internalType": "uint256",
          "name": "saleId",
          "type": "uint256"
        },
        {
          "indexed": true,
          "internalType": "uint256",
          "name": "tokenId",
          "type": "uint256"
        },
        {
          "indexed": true,
          "internalType": "address",
          "name": "nftContract",
          "type": "address"
        },
        {
          "indexed": false,
          "internalType": "address",
          "name": "seller",
          "type": "address"
        },
        {
          "indexed": false,
          "internalType": "uint256",
          "name": "startingPrice",
          "type": "uint256"
        },
        {
          "indexed": false,
          "internalType": "uint256",
          "name": "buyNowPrice",
          "type": "uint256"
        },
        {
          "indexed": false,
          "internalType": "uint256",
          "name": "endTime",
          "type": "uint256"
        }
      ],
      "name": "SaleListed",
      "type": "event"
    },
    {
      "inputs": [
        {
          "internalType": "uint256",
          "name": "saleId",
          "type": "uint256"
        }
      ],
      "name": "buyNow",
      "outputs": [],
      "stateMutability": "payable",
      "type": "function"
    },
    {
      "inputs": [
        {
          "internalType": "uint256",
          "name": "saleId",
          "type": "uint256"
        }
      ],
      "name": "cancelSale",
      "outputs": [],
      "stateMutability": "nonpayable",
      "type": "function"
    },
    {
      "inputs": [
        {
          "internalType": "uint256",
          "name": "saleId",
          "type": "uint256"
        }
      ],
      "name": "finalizeSale",
      "outputs": [],
      "stateMutability": "nonpayable",
      "type": "function"
    },
    {
      "inputs": [
        {
          "internalType": "uint256",
          "name": "saleId",
          "type": "uint256"
        }
      ],
      "name": "getSale",
      "outputs": [
        {
          "components": [
            {
              "internalType": "uint256",
              "name": "tokenId",
              "type": "uint256"
            },
            {
              "internalType": "address",
              "name": "nftContract",
              "type": "address"
            },
            {
              "internalType": "address",
              "name": "seller",
              "type": "address"
            },
            {
              "internalType": "uint256",
              "name": "startingPrice",
              "type": "uint256"
            },
            {
              "internalType": "uint256",
              "name": "buyNowPrice",
              "type": "uint256"
            },
            {
              "internalType": "uint256",
              "name": "currentBid",
              "type": "uint256"
            },
            {
              "internalType": "address",
              "name": "currentBidder",
              "type": "address"
            },
            {
              "internalType": "uint256",
              "name": "endTime",
              "type": "uint256"
            },
            {
              "internalType": "bool",
              "name": "active",
              "type": "bool"
            },
            {
              "internalType": "bool",
              "name": "completed",
              "type": "bool"
            }
          ],
          "internalType": "struct Marketplace.Sale",
          "name": "",
          "type": "tuple"
        }
      ],
      "stateMutability": "view",
      "type": "function"
    },
    {
      "inputs": [],
      "name": "getTotalSales",
      "outputs": [
        {
          "internalType": "uint256",
          "name": "",
          "type": "uint256"
        }
      ],
      "stateMutability": "view",
      "type": "function"
    },
    {
      "inputs": [
        {
          "internalType": "address",
          "name": "nftContract",
          "type": "address"
        },
        {
          "internalType": "uint256",
          "name": "tokenId",
          "type": "uint256"
        },
        {
          "internalType": "uint256",
          "name": "startingPrice",
          "type": "uint256"
        },
        {
          "internalType": "uint256",
          "name": "buyNowPrice",
          "type": "uint256"
        },
        {
          "internalType": "uint256",
          "name": "duration",
          "type": "uint256"
        }
      ],
      "name": "listNFT",
      "outputs": [
        {
          "internalType": "uint256",
          "name": "",
          "type": "uint256"
        }
      ],
      "stateMutability": "nonpayable",
      "type": "function"
    },
    {
      "inputs": [],
      "name": "owner",
      "outputs": [
        {
          "internalType": "address",
          "name": "",
          "type": "address"
        }
      ],
      "stateMutability": "view",
      "type": "function"
    },
    {
      "inputs": [
        {
          "internalType": "uint256",
          "name": "",
          "type": "uint256"
        },
        {
          "internalType": "address",
          "name": "",
          "type": "address"
        }
      ],
      "name": "pendingWithdrawals",
      "outputs": [
        {
          "internalType": "uint256",
          "name": "",
          "type": "uint256"
        }
      ],
      "stateMutability": "view",
      "type": "function"
    },
    {
      "inputs": [
        {
          "internalType": "uint256",
          "name": "saleId",
          "type": "uint256"
        }
      ],
      "name": "placeBid",
      "outputs": [],
      "stateMutability": "payable",
      "type": "function"
    },
    {
      "inputs": [],
      "name": "platformFee",
      "outputs": [
        {
          "internalType": "uint256",
          "name": "",
          "type": "uint256"
        }
      ],
      "stateMutability": "view",
      "type": "function"
    },
    {
      "inputs": [],
      "name": "renounceOwnership",
      "outputs": [],
      "stateMutability": "nonpayable",
      "type": "function"
    },
    {
      "inputs": [
        {
          "internalType": "uint256",
          "name": "",
          "type": "uint256"
        }
      ],
      "name": "sales",
      "outputs": [
        {
          "internalType": "uint256",
          "name": "tokenId",
          "type": "uint256"
        },
        {
          "internalType": "address",
          "name": "nftContract",
          "type": "address"
        },
        {
          "internalType": "address",
          "name": "seller",
          "type": "address"
        },
        {
          "internalType": "uint256",
          "name": "startingPrice",
          "type": "uint256"
        },
        {
          "internalType": "uint256",
          "name": "buyNowPrice",
          "type": "uint256"
        },
        {
          "internalType": "uint256",
          "name": "currentBid",
          "type": "uint256"
        },
        {
          "internalType": "address",
          "name": "currentBidder",
          "type": "address"
        },
        {
          "internalType": "uint256",
          "name": "endTime",
          "type": "uint256"
        },
        {
          "internalType": "bool",
          "name": "active",
          "type": "bool"
        },
        {
          "internalType": "bool",
          "name": "completed",
          "type": "bool"
        }
      ],
      "stateMutability": "view",
      "type": "function"
    },
    {
      "inputs": [
        {
          "internalType": "uint256",
          "name": "newFee",
          "type": "uint256"
        }
      ],
      "name": "setPlatformFee",
      "outputs": [],
      "stateMutability": "nonpayable",
      "type": "function"
    },
    {
      "inputs": [
        {
          "internalType": "address",
          "name": "newOwner",
          "type": "address"
        }
      ],
      "name": "transferOwnership",
      "outputs": [],
      "stateMutability": "nonpayable",
      "type": "function"
    },
    {
      "inputs": [
        {
          "internalType": "uint256",
          "name": "saleId",
          "type": "uint256"
        }
      ],
      "name": "withdraw",
      "outputs": [],
      "stateMutability": "nonpayable",
      "type": "function"
    },
    {
      "inputs": [],
      "name": "withdrawPlatformFees",
      "outputs": [],
      "stateMutability": "nonpayable",
      "type": "function"
    }
  ],
  "bytecode": "0x6080604052600160045560fa6005553480156200001b57600080fd5b5060405162001aef38038062001aef8339810160408190526200003e91620000d8565b6001600055806001600160a01b0381166200007357604051631e4fbdf760e01b81526000600482015260240160405180910390fd5b6200007e8162000086565b50506200010a565b600180546001600160a01b038381166001600160a01b0319831681179093556040519116919082907f8be0079c531659141344cd1fd0a4f28419497f9722a3daafe3b4186f6b6457e090600090a35050565b600060208284031215620000eb57600080fd5b81516001600160a01b03811681146200010357600080fd5b9392505050565b6119d5806200011a6000396000f3fe6080604052600436106100f35760003560e01c80638da5cb5b1161008a578063bd94b00511610059578063bd94b00514610336578063d0b7830b14610356578063d8f6d5961461036b578063f2fde38b1461048157600080fd5b80638da5cb5b146101f85780639979ef4514610220578063aa92938014610233578063b5f522f71461025357600080fd5b80632e1a7d4d116100c65780632e1a7d4d1461016b57806341a53be31461018b578063715018a6146101c35780637e943afd146101d857600080fd5b806308a0f32f146100f857806312e8e2c31461010d5780632156a96c1461012d57806326232a2e14610155575b600080fd5b61010b61010636600461171a565b6104a1565b005b34801561011957600080fd5b5061010b61012836600461171a565b61063f565b34801561013957600080fd5b5061014261069e565b6040519081526020015b60405180910390f35b34801561016157600080fd5b5061014260055481565b34801561017757600080fd5b5061010b61018636600461171a565b6106b4565b34801561019757600080fd5b506101426101a6366004611748565b600360209081526000928352604080842090915290825290205481565b3480156101cf57600080fd5b5061010b6107c8565b3480156101e457600080fd5b506101426101f3366004611778565b6107dc565b34801561020457600080fd5b506001546040516001600160a01b03909116815260200161014c565b61010b61022e36600461171a565b610d5b565b34801561023f57600080fd5b5061010b61024e36600461171a565b610f81565b34801561025f57600080fd5b506102d361026e36600461171a565b600260208190526000918252604090912080546001820154928201546003830154600484015460058501546006860154600787015460089097015495976001600160a01b03908116979581169694959394929391169160ff808216916101009004168a565b604080519a8b526001600160a01b03998a1660208c0152978916978a01979097526060890195909552608088019390935260a087019190915290931660c085015260e084019290925290151561010083015215156101208201526101400161014c565b34801561034257600080fd5b5061010b61035136600461171a565b611072565b34801561036257600080fd5b5061010b61119e565b34801561037757600080fd5b5061047461038636600461171a565b6040805161014081018252600080825260208201819052918101829052606081018290526080810182905260a0810182905260c0810182905260e081018290526101008101829052610120810191909152506000908152600260208181526040928390208351610140810185528154815260018201546001600160a01b0390811693820193909352928101548216938301939093526003830154606083015260048301546080830152600583015460a083015260068301541660c0820152600782015460e082015260089091015460ff80821615156101008085019190915290910416151561012082015290565b60405161014c91906117bc565b34801561048d57600080fd5b5061010b61049c366004611866565b61129a565b6104a96112d5565b6000818152600260205260409020600881015460ff166104e45760405162461bcd60e51b81526004016104db9061188a565b60405180910390fd5b8060070154421061052b5760405162461bcd60e51b8152602060048201526011602482015270105d58dd1a5bdb881a185cc8195b991959607a1b60448201526064016104db565b60028101546001600160a01b031633036105875760405162461bcd60e51b815260206004820152601a60248201527f53656c6c65722063616e6e6f7420627579206f776e206974656d00000000000060448201526064016104db565b80600401543410156105d25760405162461bcd60e51b8152602060048201526014602482015273125b9cdd59999a58da595b9d081c185e5b595b9d60621b60448201526064016104db565b60068101546001600160a01b031615610626576005810154600083815260036020908152604080832060068601546001600160a01b03168452909152812080549091906106209084906118c9565b90915550505b6106318233346112ff565b5061063c6001600055565b50565b61064761169b565b6103e88111156106995760405162461bcd60e51b815260206004820152601e60248201527f506c6174666f726d206665652063616e6e6f742065786365656420313025000060448201526064016104db565b600555565b600060016004546106af91906118e2565b905090565b6106bc6112d5565b60008181526003602090815260408083203384529091529020548061071a5760405162461bcd60e51b81526020600482015260146024820152734e6f2066756e647320746f20776974686472617760601b60448201526064016104db565b60008281526003602090815260408083203380855292528083208390555183908381818185875af1925050503d8060008114610772576040519150601f19603f3d011682016040523d82523d6000602084013e610777565b606091505b50509050806107bc5760405162461bcd60e51b815260206004820152601160248201527015da5d1a191c985dd85b0819985a5b1959607a1b60448201526064016104db565b505061063c6001600055565b6107d061169b565b6107da60006116c8565b565b60006107e66112d5565b600084116108445760405162461bcd60e51b815260206004820152602560248201527f5374617274696e67207072696365206d75737420626520677265617465722074604482015264068616e20360dc1b60648201526084016104db565b838310156108a45760405162461bcd60e51b815260206004820152602760248201527f427579206e6f77207072696365206d757374206265203e3d207374617274696e6044820152666720707269636560c81b60648201526084016104db565b610e108210156108f65760405162461bcd60e51b815260206004820181905260248201527f4475726174696f6e206d757374206265206174206c65617374203120686f757260448201526064016104db565b622820728211156109495760405162461bcd60e51b815260206004820152601e60248201527f4475726174696f6e2063616e6e6f74206578636565642033302064617973000060448201526064016104db565b6040516331a9108f60e11b815260048101869052869033906001600160a01b03831690636352211e90602401602060405180830381865afa158015610992573d6000803e3d6000fd5b505050506040513d601f19601f820116820180604052508101906109b691906118f5565b6001600160a01b031614610a055760405162461bcd60e51b8152602060048201526016602482015275165bdd48191bdb89dd081bdddb881d1a1a5cc813919560521b60448201526064016104db565b60405163e985e9c560e01b81523360048201523060248201526001600160a01b0382169063e985e9c590604401602060405180830381865afa158015610a4f573d6000803e3d6000fd5b505050506040513d601f19601f82011682018060405250810190610a739190611912565b80610aef575060405163020604bf60e21b81526004810187905230906001600160a01b0383169063081812fc90602401602060405180830381865afa158015610ac0573d6000803e3d6000fd5b505050506040513d601f19601f82011682018060405250810190610ae491906118f5565b6001600160a01b0316145b610b3b5760405162461bcd60e51b815260206004820152601860248201527f4d61726b6574706c616365206e6f7420617070726f766564000000000000000060448201526064016104db565b6004805460009182610b4c83611934565b9091555090506000610b5e85426118c9565b90506040518061014001604052808981526020018a6001600160a01b03168152602001336001600160a01b031681526020018881526020018781526020016000815260200160006001600160a01b0316815260200182815260200160011515815260200160001515815250600260008481526020019081526020016000206000820151816000015560208201518160010160006101000a8154816001600160a01b0302191690836001600160a01b0316021790555060408201518160020160006101000a8154816001600160a01b0302191690836001600160a01b03160217905550606082015181600301556080820151816004015560a0820151816005015560c08201518160060160006101000a8154816001600160a01b0302191690836001600160a01b0316021790555060e082015181600701556101008201518160080160006101000a81548160ff0219169083151502179055506101208201518160080160016101000a81548160ff021916908315150217905550905050886001600160a01b031688837f735bdc748e225e0508d667e9c4a3cf74a78837f6011eafbfc2a5bfccf07b28cc338b8b87604051610d3c94939291906001600160a01b0394909416845260208401929092526040830152606082015260800190565b60405180910390a450915050610d526001600055565b95945050505050565b610d636112d5565b6000818152600260205260409020600881015460ff16610d955760405162461bcd60e51b81526004016104db9061188a565b80600701544210610ddc5760405162461bcd60e51b8152602060048201526011602482015270105d58dd1a5bdb881a185cc8195b991959607a1b60448201526064016104db565b60028101546001600160a01b03163303610e385760405162461bcd60e51b815260206004820152601d60248201527f53656c6c65722063616e6e6f7420626964206f6e206f776e206974656d00000060448201526064016104db565b8060030154341015610e8c5760405162461bcd60e51b815260206004820152601860248201527f4269642062656c6f77207374617274696e67207072696365000000000000000060448201526064016104db565b80600501543411610ecd5760405162461bcd60e51b815260206004820152600b60248201526a42696420746f6f206c6f7760a81b60448201526064016104db565b60068101546001600160a01b031615610f21576005810154600083815260036020908152604080832060068601546001600160a01b0316845290915281208054909190610f1b9084906118c9565b90915550505b34600582018190556006820180546001600160a01b031916339081179091556040519182529083907f0e54eff26401bf69b81b26f60bd85ef47f5d85275c1d268d84f68d6897431c479060200160405180910390a35061063c6001600055565b610f896112d5565b6000818152600260205260409020600881015460ff16610fbb5760405162461bcd60e51b81526004016104db9061188a565b80600701544210156110065760405162461bcd60e51b815260206004820152601460248201527341756374696f6e207374696c6c2061637469766560601b60448201526064016104db565b60068101546001600160a01b03166110515760405162461bcd60e51b815260206004820152600e60248201526d139bc8189a591cc81c1b1858d95960921b60448201526064016104db565b600681015460058201546106319184916001600160a01b03909116906112ff565b61107a6112d5565b6000818152600260205260409020600881015460ff166110ac5760405162461bcd60e51b81526004016104db9061188a565b60028101546001600160a01b031633146111015760405162461bcd60e51b815260206004820152601660248201527513db9b1e481cd95b1b195c8818d85b8818d85b98d95b60521b60448201526064016104db565b60068101546001600160a01b03161561115c5760405162461bcd60e51b815260206004820152601e60248201527f43616e6e6f742063616e63656c2077697468206163746976652062696473000060448201526064016104db565b60088101805460ff1916905560405182907f2c56893f6f6026d19bd17b7d05c9f15c522de1ae2b1c3a825f91a73c799321f290600090a25061063c6001600055565b6111a661169b565b47806111ea5760405162461bcd60e51b81526020600482015260136024820152724e6f206665657320746f20776974686472617760681b60448201526064016104db565b60006111fe6001546001600160a01b031690565b6001600160a01b03168260405160006040518083038185875af1925050503d8060008114611248576040519150601f19603f3d011682016040523d82523d6000602084013e61124d565b606091505b50509050806112965760405162461bcd60e51b8152602060048201526015602482015274119959481dda5d1a191c985dd85b0819985a5b1959605a1b60448201526064016104db565b5050565b6112a261169b565b6001600160a01b0381166112cc57604051631e4fbdf760e01b8152600060048201526024016104db565b61063c816116c8565b6002600054036112f857604051633ee5aeb560e01b815260040160405180910390fd5b6002600055565b60008381526002602081905260409182902060088101805461ffff1916610100179055600181015491810154815493516323b872dd60e01b81526001600160a01b0391821660048201528682166024820152604481019490945290929116906323b872dd90606401600060405180830381600087803b15801561138157600080fd5b505af1158015611395573d6000803e3d6000fd5b505050506000612710600554846113ac919061194d565b6113b69190611964565b90506000806113c583866118e2565b60018501549091506001600160a01b0316156115b05760018401548454604051631af9cf4960e01b81526001600160a01b0390921691631af9cf49916114119160040190815260200190565b602060405180830381865afa92505050801561144a575060408051601f3d908101601f1916820190925261144791810190611986565b60015b156115b05780156115ae5760018501548554604051636a4731c560e11b815260048101919091526000916001600160a01b03169063d48e638a90602401602060405180830381865afa1580156114a4573d6000803e3d6000fd5b505050506040513d601f19601f820116820180604052508101906114c891906118f5565b60028701549091506001600160a01b038083169116146115ac576127106114ef838961194d565b6114f99190611964565b935061150584846118e2565b92506000816001600160a01b03168560405160006040518083038185875af1925050503d8060008114611554576040519150601f19603f3d011682016040523d82523d6000602084013e611559565b606091505b50509050806115aa5760405162461bcd60e51b815260206004820152601760248201527f526f79616c7479207472616e73666572206661696c656400000000000000000060448201526064016104db565b505b505b505b60028401546040516000916001600160a01b03169083908381818185875af1925050503d80600081146115ff576040519150601f19603f3d011682016040523d82523d6000602084013e611604565b606091505b505090508061164d5760405162461bcd60e51b815260206004820152601560248201527414d95b1b195c881c185e5b595b9d0819985a5b1959605a1b60448201526064016104db565b866001600160a01b0316887feaa0b3bd2d2b8f1ec500812be411e759ca63e36ab996d88f59d3076f634f095a8860405161168991815260200190565b60405180910390a35050505050505050565b6001546001600160a01b031633146107da5760405163118cdaa760e01b81523360048201526024016104db565b600180546001600160a01b038381166001600160a01b0319831681179093556040519116919082907f8be0079c531659141344cd1fd0a4f28419497f9722a3daafe3b4186f6b6457e090600090a35050565b60006020828403121561172c57600080fd5b5035919050565b6001600160a01b038116811461063c57600080fd5b6000806040838503121561175b57600080fd5b82359150602083013561176d81611733565b809150509250929050565b600080600080600060a0868803121561179057600080fd5b853561179b81611733565b97602087013597506040870135966060810135965060800135945092505050565b815181526020808301516101408301916117e0908401826001600160a01b03169052565b5060408301516117fb60408401826001600160a01b03169052565b50606083015160608301526080830151608083015260a083015160a083015260c083015161183460c08401826001600160a01b03169052565b5060e083015160e0830152610100808401516118538285018215159052565b5050610120928301511515919092015290565b60006020828403121561187857600080fd5b813561188381611733565b9392505050565b6020808252600f908201526e53616c65206e6f742061637469766560881b604082015260600190565b634e487b7160e01b600052601160045260246000fd5b808201808211156118dc576118dc6118b3565b92915050565b818103818111156118dc576118dc6118b3565b60006020828403121561190757600080fd5b815161188381611733565b60006020828403121561192457600080fd5b8151801515811461188357600080fd5b600060018201611946576119466118b3565b5060010190565b80820281158282048414176118dc576118dc6118b3565b60008261198157634e487b7160e01b600052601260045260246000fd5b500490565b60006020828403121561199857600080fd5b505191905056fea264697066735822122051d98e6dae7d25c1c99008fe9098c8a5a6343a7ff22df1adeb10d79f5296203c64736f6c63430008140033",
  "linkReferences": {},
  "deployedLinkReferences": {}
}